:020000041000EA
:1000000000B5324B212058609868022188439860DF
:10001000D860186158612E4B002199600221596106
:100020000121F02299502B49196001219960352056
:1000300000F044F80222904214D00621196600F024
:1000400034F8196E01211966002018661A6600F04E
:100050002CF8196E196E196E052000F02FF8012189
:100060000842F9D1002199601B49196000215960AB
:100070001A491B48016001219960EB211966A021F2
:10008000196600F012F800219960164914480160C1
:100090000121996001BC002800D000471248134993
:1000A000086003C880F30888084703B5996A0420EC
:1000B0000142FBD001200142F8D103BD02B5186610
:1000C0001866FFF7F2FF186E186E02BD00000240BE
:1000D000000000180000070000035F00212200005C
:1000E000F4000018222000A00001001008ED00E03C
:1000F00000000000000000000000000074B24E7A12
:1001000000200420F7010010C3010010D95D011088
:10011000C1010010C1010010C1010010C101001097
:10012000C1010010C1010010C1010010C701001081
:10013000C1010010C1010010C9010010CB01001065
:10014000CD010010CD010010CD010010CD01001037
:10015000CD010010CD010010CD010010CD01001027
:10016000CD010010CD010010CD010010CD01001017
:10017000CD010010CD010010CD010010CD01001007
:10018000CD010010CD010010CD010010CD010010F7
:10019000CD010010CD010010CD010010CD010010E7
:1001A000CD010010CD010010CD010010CD010010D7
:1001B000CD010010CD010010CD010010CD010010C7
:1001C00000BE00BE00BE00BE00BE00BEEFF3058054
:1001D000103800BEF2EB8871E85C02100C5D021072
:1001E0003802001090A31AE71E481F49086006C88D
:1001F00081F3088810471D480068002801D019487D
:10020000F3E70DA40ECC002902D000F012F8F9E7B4
:100210001749184A002000E001C19142FCD116495B
:100220008847164988471649884700BEFDE701C937
:1002300001C29A42FBD370470C5D021040010020BE
:1002400048230020147F0210000004200000042036
:10025000147F021000100420001004200000000091
:10026000704700000000000008ED00E0000000D032
:1002700048230020784D0020E58500101909001062
:10028000DD850010F8B5C04606480749091A8B10ED
:10029000C90FC91810B5491003D0044B002B00D06A
:1002A000984710BD4823002048230020000000008C
:1002B000054B10B5002B03D00449054800E000BFF2
:1002C000FFF7E2FF10BDC04600000000F84C002020
:1002D000FCB10110F0B5C64600B592B004F0D4FBF5
:1002E000404B180098461AF053FF04F04FFA0600EE
:1002F0000F003D4B1E605F60186859683B4B1A68E1
:100300005B68801A9941FA220023920004F002FEF1
:1003100004000D00364B374F1C605D6040461A6884
:100320005B683A607B601AF0C3FE334E3378002B73
:1003300008D1324C2378002B32D1012012B080BC7E
:10034000B846F0BD2E4D06A8290001F0FDFC29009D
:1003500006A801F043FD290006A801F091FD4046E2
:100360001AF016FF3A687B684046AA62EB621AF000
:100370009FFE347B302260000019000130182900F4
:10038000103006F069FC1F2301342340747B337363
:10039000E41A63425C41B473184C2378002BCCD030
:1003A000184D6846290002F06BF82900267B1822B8
:1003B00070008019C00020180831103006F04CFC85
:1003C0001F2301363340667B2373F61A73425E4166
:1003D0002800A67302F02AF83A687B68AA61EB61EC
:1003E000ABE7C0464C4D0020C83C0020E03E00205A
:1003F000403B0020D03C0020A0280020E82E002018
:10040000803B0020E03B002070B58825174CAD00F4
:10041000174E635D84B031006846002B17D002F0A0
:10042000B7FA00236355257B1022013528013100DE
:10043000201806F011FC1F22637B2A409B1A2273AE
:100440005A42534100200021A37304B070BD02F052
:10045000D9F9300002F078FA01236355337C590151
:10046000C91A8900C918C800C917EEE74835002025
:10047000483C0020F0B5C64600B5714B94B018005A
:1004800098461AF085FE04F081F904000D006D4BCA
:100490001C605D60186859686B4B1A685B68801A4D
:1004A0009941FA220023920004F034FD06000F0067
:1004B000664B674D1E605F6040461A685B682A6045
:1004C0006B601AF0F5FD634C2378002B12D0267B6D
:1004D000182270008019C00020185F49103006F003
:1004E000BBFB1F2301363340667B2373F61A73422E
:1004F0005E41A673594C2378002B11D1584C2378B8
:10050000002B3DD1574C2378002B5AD1564C2378E1
:10051000002B00D079E0012014B080BCB846F0BDBB
:10052000524E300002F004F9882300229B00E2546E
:100530002A686B68B260F360367C03F07FFE0400CB
:1005400004F024F9FA22002304900591920030006F
:10055000002106F011FA049A059B12184B41002B5A
:1005600002DA0122424B524200210291019141499B
:100570002000009103F066FE394C2378002BC1D097
:100580003D4F10A8390002F023FC390010A802F0FA
:10059000A3FC2A686B68BA60FB60267B10220136D8
:1005A00030012018390006F057FB1F22637B3240D0
:1005B0009B1A22735A425341A3732A4C2378002B6F
:1005C000A4D02E4F0AA8390002F0C2FD267B1822C3
:1005D00070008019C00020183900103006F03CFB74
:1005E0001F2301363340667B2373F61A73425E4144
:1005F0003800A67302F0A4FD2A686B681A4C3A61B1
:100600007B612378002B00D185E71D4E06A83100C1
:1006100002F07CFF2A686B68B260F360257B1022D1
:10062000013528013100201806F016FB1F22637BDC
:100630002A409B1A22735A425341A3736BE7C04668
:100640004C4D0020C83C0020E03E0020403B0020F4
:10065000D83C002018320020E83B0020483500201C
:10066000703700204823002078260020483C0020D6
:10067000FFFFFF7F09040010E83E002098390020AA
:10068000503B0020F0B5DE464E4645465746E0B5A5
:1006900091B003F0D3FD0AAB029300230193904B7A
:1006A000904A0093002303F0CDFF8F4B8F4F994664
:1006B0008F4B904E9846904B904D0793904B914C9A
:1006C0000893914B0993914B0693914B05934B469D
:1006D0001B78002B2AD04B461A7B5B7B9A4200D1B9
:1006E000D6E0EFF3108B72B64B465B7B18229A462E
:1006F00059005144C90049441031864806F0ACFA0B
:1007000053461F22013313404A4653734B4600227F
:100710009A738BF3108840461AF03AFD00F0E2FE1F
:10072000002800D1D4E040461AF0C2FC3B78002BF0
:1007300025D07A7B3B7B9A4200D1B4E0EFF3108B5B
:1007400072B67B7B102201339A46190184239B00E9
:10075000F818791806F080FA53461F2213407B736D
:100760000023BB738BF3108840461AF011FD00F094
:1007700053FF002800D1AFE040461AF099FC3378CF
:10078000002B25D0727B337B9A4200D190E0EFF3AF
:10079000108B72B6737B102201339A4619018423A1
:1007A0009B00F018711806F057FA53461F221340A9
:1007B00073730023B3738BF3108840461AF0E8FC80
:1007C00000F0CAFF002800D17AE040461AF070FC21
:1007D0002B78002B26D06A7B2B7B9A426CD0EFF3D0
:1007E000108B72B66B7B18229A465900C423514471
:1007F000C9009B006918E818103106F02DFA53461D
:100800001F22013313406B730023AB738BF31088EB
:1008100040461AF0BDFC01F035F8002854D040469F
:100820001AF046FC2378002B00D150E7627B237B33
:100830009A4233D0EFF3108B72B6637B10220133F0
:100840009A46190184239B00E018611806F004FA07
:1008500053461F22134063730023A3738BF3108846
:1008600040461AF095FC01F0AFF8002802D1059837
:1008700008F044F840461AF01BFC4B461B78002B4E
:1008800000D153E74B461A7B5B7B9A4200D028E7A6
:100890004B469B7B002B00D148E722E7A37B002B34
:1008A00000D114E7C6E7BB7B002B00D167E745E723
:1008B000B37B002B8CD06AE7AB7B002BB2D08EE7EA
:1008C000099808F01BF880E7069808F017F8A6E7E3
:1008D000079808F013F826E7089808F00FF84BE798
:1008E00075040010809698001832002048350020CA
:1008F0003C4D00207037002000B20110482300203A
:1009000034B201107826002068B2011090B20110B4
:10091000B4B2011028350020F0B5DE464E465746E9
:100920004546E0B52F4C3048A54403F05BFA2F480C
:1009300003F058FA2E4E300003F054FA192002F05A
:100940000FFFD02380221B0692045A6207F088FF13
:10095000002808D1C821032000F0DAFBFA2080002B
:1009600003F06CFDF6E704F02BF9002800D071E2EB
:10097000204803F063FD204B2049186816F0F8F872
:100980000321102002F09CFE0321112002F098FEAA
:1009900000220121102002F0ADFE002201211120D1
:1009A00002F0A8FE164BA32019000B9306AB9C4641
:1009B000C000012260440EF099FD041E099023D06E
:1009C00015F00EFB0F4B01002200180008F01AF87A
:1009D000C821042000F09CFBFA20800003F02EFDCB
:1009E000F6E7C04664F8FFFF4C4D0020DC4C0020C9
:1009F0003C4D00208813000080170020801A06005C
:100A00005CC40110F4B20110C922EA4D099BD20066
:100A1000190028009B4606F019F9CC22E64CE74B5A
:100A200059461CAF920020006B60AF6006F00EF9D3
:100A3000E34B01226360CA239B00E254CC22A760EF
:100A4000E04F59469200380006F000F9B4A8B860AB
:100A5000DD488A228146DD4B594692007B6006F0D4
:100A6000F5F84846DA4BB4A943608160D9488A2238
:100A700082465946920006F0E9F85046D64BB4A992
:100A800043608160D5485B46CC22804619009200C5
:100A9000099306F0DBF84046D14B01224360B4AB2A
:100AA0008360CA239B00C254CE4B8A229B46180007
:100AB0000999920006F0CAF85A46CB4B01215360BF
:100AC0005B46B4AA9A60C94B022218000A9303231A
:100AD000009301F021F8002800D044E10020072312
:100AE00028700693063B059303930023029301931A
:100AF0000093802303221B02BD48049219001A00B0
:100B00000A9001F08BFA002800D0A7E1207038701D
:100B1000B84F762348225821380001F0F1FF4B46A8
:100B2000002800D00CE21870002302224821B248AD
:100B300002F056FAB14F002800D041E2534601229C
:100B4000187000230521AE480192009302F034FD95
:100B5000002800D0B2E15B461870AA4B18009A46F4
:100B600002F030FB4346002800D099E118700027BE
:100B700003F064FB16AB0293A34BA44A00930197C6
:100B8000002303F05FFD03F001FEA14B18605960E4
:100B9000A04816F077F839000F2003F07FFF0123FB
:100BA00002930193063300939B4811AB10AA0FA93F
:100BB00015F094FCB84200D111E20F9B974998467A
:100BC0004144090D109B06310720C9B2119F9A4676
:100BD00002F076FD0123514607220093404615F0AE
:100BE000D5FB80235B021293C0231B0314933B00AD
:100BF0000D33FA011B0313431393894B05201593FF
:100C000003F0EAFE400005F0F5FEEC21890505F051
:100C1000D3FE814605F048FFBB4687B2002F0ED0B9
:100C2000380005F0E7FE011C484605F0C2FE8721AA
:100C3000C90505F0D8FE05F037FFC3B20993099B3B
:100C40003F041B023B4351465A464046129312ABA7
:100C500015F0F6FB434651461A6801238B401343B7
:100C60004246072113606F4807F0CCFE6E4B099394
:100C70006E4B0A936E4B9846B4239B0099461F23F4
:100C800047469A462B78002B27D06A7B2B7B9A42CB
:100C900000D143E1EFF3108B72B630216B7B302231
:100CA00098465943C2236918DB00E818103105F053
:100CB000D3FF43465246013313406B730023AB739B
:100CC0008BF3108830001AF063FA00F099FA0028CC
:100CD00000D131E130001AF0EBF92378002B27D056
:100CE000627B237B9A4200D11DE1EFF3108B72B639
:100CF000637B182219009846C42351439B00611856
:100D0000E018103105F0A8FF434652460133134066
:100D100063730023A3738BF3108830001AF038FA42
:100D200000F03EFB002800D102E130001AF0C0F9CB
:100D30004B46FB58002BA5D0380098470028A1D17E
:100D400007003C4807F0DAFD3A0038000B990EF036
:100D5000CDFBFA210820490000F0DAF9FA208000E2
:100D600003F06CFBF5E7072209990A9800F080FF71
:100D7000002800D1B2E6304B304A31490A9801F0E0
:100D8000C9F830490A98304B304A01F02DF96968AA
:100D9000A86800F0DDF9002805D02D49A8680FF0FB
:100DA000CDFC002866DBA86800F000FA002800D01F
:100DB00095E6FEE7A0280020E82E00200CB30110E5
:100DC00018B3011018320020483500202CB3011050
:100DD00040B30110703700204CB3011048230020AD
:100DE0005CB301107826002068B30110803B00201E
:100DF000E03B0020483C0020E83E0020D0B301103A
:100E0000503B002098390020D50200101027000028
:100E1000E03E0020850600101CCB01100000E0AF72
:100E2000E0000004A8B40110CCB40110F0B401102B
:100E30008817002028B50110D7A3F0BE0AD7A33D1C
:100E40009A99193E8CDB88BEC286573F1B0D103F16
:100E500078B301107B4807F051FD89E56168A0680F
:100E600000F076F9002815D07749A0680FF066FCED
:100E700000280FDA754807F041FDC821062000F070
:100E800047F90020724B9D44F0BCBB46B246A946D0
:100E9000A046F0BDA06800F089F900281ED1FEE749
:100EA0005968986800F054F9002800D0B9E043462A
:100EB000986800F07BF9002829D1FEE75B46596865
:100EC000986800F045F9002800D08BE05B469868F0
:100ED00000F06CF9002800D03DE6FEE77968B868BC
:100EE00000F036F9002805D05A49B8680FF026FC02
:100EF0000028BFDBB86800F059F9002800D1FEE7F0
:100F000001230A9823703B7001F090FA00E6012358
:100F100042465046137002F013F928E6AB7B002BD3
:100F200000D1DAE6B6E6A37B002B00D100E7DCE6D1
:100F30000A9807F0E3FCF8E6099807F0DFFCC9E639
:100F40005968986800F004F9002807D04B464249D8
:100F500098680FF0F3FB002800DA8BE74B4698689F
:100F600000F024F9002800D1FEE701234A463800AA
:100F7000137001F0DDFB3F7C03F060F90A9003F091
:100F800005FCFA2200230C900D91920038000021FC
:100F900005F0F2FC0C9A0D9B12184B41002B02DA63
:100FA00001222E4B524200272D490A9802970197A1
:100FB000009103F047F988234A469B00D754B3E5D4
:100FC00053465968986800F0C3F800281AD1534670
:100FD000986800F0EBF8002800D0AFE5FEE703F0DA
:100FE00059FEEAE55B461F4998680FF0A7FB002809
:100FF00000DB6BE7380007F081FCC821062000F019
:1010000087F863E75346184998680FF097FB002864
:10101000DDDA380007F072FCC821062000F078F80D
:10102000D5E74346114998680FF088FB002800DB9C
:101030003DE7380007F062FCC821062000F068F8A0
:1010400035E7C046DCB20110E0B30110D0B30110A7
:101050009C07000004B4011010B40110FFFFFF7FD3
:101060000904001048B4011024B4011070B4011038
:1010700070B5194E194D1A4C82B0316811231022E7
:1010800001950094174800F03BFD316811231022B0
:1010900001950094144800F0ABFF31681123102231
:1010A00001950094114801F033FB3168112310229F
:1010B000019500940E4801F03DFE06210D4802F016
:1010C0003DF8316811231022019500940A4802F07E
:1010D00065F902B070BDC04680170020DC4C0020CE
:1010E000801A0600803B0020E03B0020483C0020A6
:1010F000E83E002098390020503B00200120704736
:10110000002801D1014870470020FCE78817002023
:10111000F0B5C6468046D0261920802700B50D00C0
:1011200002F01EFB43463606BF0400247762002B04
:101130000BD028007761013403F080F9E4B2280075
:10114000B76103F07BF9A045F3D180BCB846F0BD90
:1011500070B532220D000EF0ADFAF7230400012025
:101160001C421FD0200014F03BFF0F4E020029004C
:101170003000D02580262300052407F043FC2D06EF
:101180001920B60402F0ECFA6E62C8206E61013CD0
:1011900003F054F9E4B2C820AE6103F04FF9002C1B
:1011A000F3D1002070BDC04654B5011070B50FF0EA
:1011B00089FA04000120002C00D170BD200014F039
:1011C0000FFFD0258026220007240C4B01001800B9
:1011D00007F018FC2D061920B60402F0C1FA6E6261
:1011E000C8206E61013C03F029F9E4B2C820AE6169
:1011F00003F024F9002CF3D10020DEE770B50110D4
:10120000F0B5C64600B55D4C32226668A068310074
:1012100092B00EF04FFAF7230500184222D014F0D6
:10122000DFFE2B003100564CD02580260200200026
:10123000052407F0E7FB2D061920B60402F090FA0A
:101240006E62C8206E61013C03F0F8F8E4B2C82079
:10125000AE6103F0F3F8002CF3D1002012B080BC93
:10126000B846F0BDC223DB00E05805F023FCA368BC
:1012700006009846C723DB00E3181A685B681092E3
:101280001193C623DB00E0580F0005F013FC0E900D
:101290000F913C4B3C4DE05805F00CFCC5230C90E5
:1012A0000D91DB00E05805F005FC0A900B91374BDF
:1012B000E05805F0FFFBC42308900991DB00E058DB
:1012C00005F0F8FB06900791314BE05805F0F2FB72
:1012D000C32304900591DB00E05805F0EBFB02907E
:1012E00003912C4BE05805F0E5FB32000090019192
:1012F0003B00290040460FF021FA002825DBA068BA
:101300000FF0E0F904000120002CA7D0200014F019
:1013100067FED0258026220007241F4B01001800FD
:1013200007F070FB2D061920B60402F019FA6E6260
:10133000C8206E61013C03F081F8E4B2C820AE61C0
:1013400003F07CF8002CF3D187E7D0258026062413
:10135000124807F0D3FA2D061920B60402F000FA5D
:101360006E62C8206E61013C03F068F8E4B2C820E8
:10137000AE6103F063F8002CF3D16EE7A0280020E3
:1013800054B501102C06000094B50110240600008D
:101390001C0600001406000070B50110D0B3011047
:1013A000F0B5C64600B54A4C32226668A0683100E6
:1013B00086B00EF07FF9F7230500184222D014F012
:1013C0000FFE2B003100434CD02580260200200068
:1013D000052407F017FB2D061920B60402F0C0F90A
:1013E0006E62C8206E61013C03F028F8E4B2C820A8
:1013F000AE6103F023F8002CF3D1002006B080BCCE
:10140000B846F0BDC4239B00E05805F053FBA36829
:1014100006009846C8239B00E3181A685B6804928C
:101420000593C6239B00E0580F0005F043FBC5233E
:10143000029003919B00E05805F03CFB264D009084
:10144000019132003B00290040460FF077F9002857
:1014500025DBA0680FF036F904000120002CCDD068
:10146000200014F0BDFDD0258026220007241B4B50
:101470000100180007F0C6FA2D061920B60402F084
:101480006FF96E62C8206E61013C02F0D7FFE4B2D2
:10149000C820AE6102F0D2FF002CF3D1ADE7D02519
:1014A000802606240E4807F029FA2D061920B604D6
:1014B00002F056F96E62C8206E61013C02F0BEFF78
:1014C000E4B2C820AE6102F0B9FF002CF3D194E77A
:1014D000E82E002054B50110C8B5011070B50110F8
:1014E000D0B30110F0B5C64600B5464C322266684E
:1014F000A068310082B00EF0DDF8F7230500184235
:1015000022D014F06DFD2B0031003F4CD0258026F9
:1015100002002000052407F075FA2D061920B604F4
:1015200002F01EF96E62C8206E61013C02F086FF77
:10153000E4B2C820AE6102F081FF002CF3D100209C
:1015400002B080BCB846F0BDC7239B00E05805F050
:10155000B1FAA368FA229846C8239B00E318060054
:101560000F00186859689200002303F0D3FC274D40
:101570000090019132003B00290040460FF0DEF858
:10158000002825DBA0680FF09DF804000120002C46
:10159000D6D0200014F024FDD02580262200072478
:1015A0001B4B0100180007F02DFA2D061920B60478
:1015B00002F0D6F86E62C8206E61013C02F03EFF78
:1015C000E4B2C820AE6102F039FF002CF3D1B6E7D7
:1015D000D025802606240F4807F090F92D06192003
:1015E000B60402F0BDF86E62C8206E61013C02F0E4
:1015F00025FFE4B2C820AE6102F020FF002CF3D139
:101600009DE7C0461832002054B50110BCB501104A
:1016100070B50110D0B30110F0B5C64600B5494C05
:1016200032226668A068310084B00EF043F8F723D8
:101630000500184222D014F0D3FC2B003100424C9C
:10164000D025802602002000052407F0DBF92D06B6
:101650001920B60402F084F86E62C8206E61013C65
:1016600002F0ECFEE4B2C820AE6102F0E7FE002C0E
:10167000F3D1002004B080BCB846F0BD84239B00A9
:10168000E05805F017FAA368FA22984686239B00D3
:10169000E318920006000F0018685968002303F051
:1016A00051FC8523029003919B00E05805F002FA5B
:1016B000264D0090019132003B00290040460FF07A
:1016C0003DF8002825DBA0680EF0FCFF0400012097
:1016D000002CCFD0200014F083FCD02580262200DF
:1016E00007241B4B0100180007F08CF92D06192068
:1016F000B60402F035F86E62C8206E61013C02F05B
:101700009DFEE4B2C820AE6102F098FE002CF3D139
:10171000AFE7D025802606240E4807F0EFF82D0607
:101720001920B60402F01CF86E62C8206E61013CFC
:1017300002F084FEE4B2C820AE6102F07FFE002C0D
:10174000F3D196E74835002054B50110E0B50110FB
:1017500070B50110D0B30110F0B5C64600B5444CC9
:1017600032226668A068310082B00DF0A3FFF72333
:101770000500184222D014F033FC2B0031003D4C00
:10178000D025802602002000052407F03BF92D0615
:101790001920B60401F0E4FF6E62C8206E61013CBE
:1017A00002F04CFEE4B2C820AE6102F047FE002C0D
:1017B000F3D1002002B080BCB846F0BD85239B0069
:1017C000E358FA22984684239B00E758E318986868
:1017D000D9689200002303F09DFBA668264D009077
:1017E000019143463A00290030000EF0A7FF00287F
:1017F00025DBA0680EF066FF04000120002CD9D084
:10180000200014F0EDFBD0258026220007241B4B7E
:101810000100180007F0F6F82D061920B60401F0B3
:101820009FFF6E62C8206E61013C02F007FEE4B2C9
:10183000C820AE6102F002FE002CF3D1B9E7D0253A
:10184000802606240E4807F059F82D061920B60404
:1018500001F086FF6E62C8206E61013C02F0EEFD71
:10186000E4B2C820AE6102F0E9FD002CF3D1A0E79C
:101870007037002054B50110F0B5011070B501109B
:10188000D0B30110F0B5C64600B54A4C32226668A6
:10189000A068310086B00DF00DFFF7230500184257
:1018A00022D014F09DFB2B003100434CD025802624
:1018B00002002000052407F0A5F82D061920B60423
:1018C00001F04EFF6E62C8206E61013C02F0B6FD71
:1018D000E4B2C820AE6102F0B1FD002CF3D10020CB
:1018E00006B080BCB846F0BDC5239B00E05805F0AB
:1018F000E1F8A368FA229846C8239B00E3189200F7
:1019000006000F0018685968002303F003FB0490D9
:101910000591237E294D0293C4239B00E05805F0D6
:10192000C9F83200009001913B00290040460EF0BA
:1019300005FF002825DBA0680EF0C4FE040001208E
:10194000002CCDD0200014F04BFBD02580262200A7
:1019500007241B4B0100180007F054F82D0619202E
:10196000B60401F0FDFE6E62C8206E61013C02F01B
:1019700065FDE4B2C820AE6102F060FD002CF3D139
:10198000ADE7D025802606240E4806F0B7FF2D06C9
:101990001920B60401F0E4FE6E62C8206E61013CBD
:1019A00002F04CFDE4B2C820AE6102F047FD002C0D
:1019B000F3D194E74823002054B5011000B601107C
:1019C00070B50110D0B30110F0B5C64600B5464C55
:1019D00032226668A068310084B00DF06BFEF723F8
:1019E0000500184222D014F0FBFA2B0031003F4CC6
:1019F000D025802602002000052407F003F82D06DC
:101A00001920B60401F0ACFE6E62C8206E61013C84
:101A100002F014FDE4B2C820AE6102F00FFD002C0C
:101A2000F3D1002004B080BCB846F0BD8423FA2274
:101A30009B00E35A920098462D4BA668E75A06335E
:101A4000E31818685968002303F064FA85230290AC
:101A500003919B00E35A274D00933A004346290027
:101A600030000EF06BFE002825DBA0680EF02AFE89
:101A700004000120002CD5D0200014F0B1FAD025AC
:101A80008026220007241C4B0100180006F0BAFF34
:101A90002D061920B60401F063FE6E62C8206E6147
:101AA000013C02F0CBFCE4B2C820AE6102F0C6FCFF
:101AB000002CF3D1B5E7D025802606240F4806F088
:101AC0001DFF2D061920B60401F04AFE6E62C820E3
:101AD0006E61013C02F0B2FCE4B2C820AE6102F0DB
:101AE000ADFC002CF3D19CE77826002054B5011002
:101AF0001202000018B6011070B50110D0B3011029
:101B00008363009B0163C363019B426303640023FF
:101B100043648364C3647047F0B5D6464F46464677
:101B2000C0B584B01F000CAB1B7890469A466A463D
:101B30000F23D3720B22050000260E3B006B6A4474
:101B4000009303AC89466B2115F03AF80123286B0A
:101B500022006B21009615F03DF82378682B09D000
:101B60003A4806F0CBFE002004B0E0BCBA46B146CD
:101B7000A846F0BD102323704B467F01DB001F43B6
:101B8000220002236B21286B6770009615F018F86D
:101B90002023424623705346D2005B0113436370F7
:101BA000220002236B21286B009615F009F8284BC0
:101BB000220023806B210223286B009615F000F889
:101BC000244B220023806B210223286B009614F003
:101BD000F7FF2123220023806B21286B1F3B0096F7
:101BE00014F0EEFF1C4B220023806B210223286B94
:101BF000009614F0E5FF194B220023806B2102238D
:101C0000286B009614F0DCFF2E23220023806B212A
:101C1000286B2C3B009614F0D3FF114B220023803D
:101C20006B210223286B009614F0CAFF4B460D4A25
:101C30009B009B580C4A6B6443469B009B580B4887
:101C4000AB6406F05BFE01208EE7C0462CB60110A7
:101C50001E3800001F38000022040000230200008C
:101C60002EC0FFFF60CB011050CB011060B60110F9
:101C7000F0B5C64600B584B00F2316006A46D3728D
:101C80000B22050000270E3B006B6A44009303AC57
:101C900088461E2114F094FF0123286B22001E2188
:101CA000009714F097FF23783D2B07D0224806F0C9
:101CB00025FE002004B080BCB846F0BD2023237070
:101CC0004023B6001E43220002231E21286B6670AB
:101CD000009714F075FF2123237043465B01637066
:101CE000220002231E21286B009714F069FF222393
:101CF000220023801E21286B203B009714F060FFF8
:101D00000E4B220023801E210223286B009714F023
:101D100057FF2423220023801E21286B223B00979B
:101D200014F04EFF4246064B9700FB580548EB6403
:101D300006F0E4FD0120BDE790B601102308000085
:101D400040CB0110C4B60110F0B5CE46474680B571
:101D500087B06A46A8230500086C0C00D37319F0FD
:101D600017FA01230F22206B6A4400936B2114F0B1
:101D700027FF002304AE32006B21206B0093063353
:101D800014F028FF206C19F093F90222B35EA76CBF
:101D900099460422B35E98460023F05E04F030FEBC
:101DA000391C04F020FE2060484604F029FE391C4E
:101DB00004F019FE6060404604F022FE391C04F075
:101DC00012FE3022A0602100280004F045FF280008
:101DD00007B0C0BCB946B046F0BDC046F0B5CE466F
:101DE000474680B587B06A4698230500086C0C000A
:101DF000D37319F0CDF901230F22206B6A440093AD
:101E00006B2114F0DDFE002304AE32006B21206B49
:101E10000093063314F0DEFE206C19F049F902221B
:101E2000B35E676C99460422B35E98460023F05E69
:101E300004F0E6FD391C04F0D6FD216D04F0B9FD77
:101E4000E060484604F0DCFD391C04F0CCFD616D17
:101E500004F0AFFD2061404604F0D2FD391C04F0CF
:101E6000C2FDA16D04F0A5FD3022606121002800B3
:101E700004F0F2FE280007B0C0BCB946B046F0BD81
:101E8000F0B5CE46474680B587B06A46A823050020
:101E9000086C0C00D37319F07BF901230F22206B1F
:101EA0006A4400931E2114F08BFE002304AE32001E
:101EB0001E21206B0093063314F08CFE206C19F069
:101EC000F7F80222B35EE76C99460422B35E9846A7
:101ED0000023F05E04F094FD391C04F084FDA06141
:101EE000484604F08DFD391C04F07DFDE06140465C
:101EF00004F086FD391C04F076FD302220622100BA
:101F0000280004F0A9FE280007B0C0BCB946B046BE
:101F1000F0BDC046F0B5CE464746050080B5EE6C34
:101F200085B0081C311C171C1C1C04F048FD04F073
:101F300089FD311C03B2381C994604F040FD04F0C1
:101F400081FD311C03B2201C984604F038FD04F0DA
:101F500079FD052303AC002623704B4622006370F5
:101F600007B20223286B1E21009614F029FE0623D7
:101F700023704B461B1263702200286B02231E2124
:101F8000009614F01DFE0723237043462200637061
:101F9000286B02231E21009614F012FE08232370E2
:101FA00043461B1263702200286B02231E210096F9
:101FB00014F006FE0923677023702200286B1E218F
:101FC0000096073B14F0FCFD0A233F122370286B98
:101FD000677022001E210096083B14F0F1FD05B049
:101FE000C0BCB946B046F0BD016542658365704727
:101FF00030B50024426202008362039B0460C36226
:10200000049B01620363044B483232CB32C232CBB1
:1020100032C212CB12C230BD70CB0110F0B54E46A9
:102020004546DE465746E0B58BB0079314AB1B78A8
:102030000125049315AB1B780692994616AB1B78C5
:102040006A469B4617AB1B780600029318AB1B78B9
:102050000C00059319AB1B78006A9A461AAB1B78E3
:102060000C2198465023138400954E3B08AA14F087
:10207000A7FD022812D00021DA4806F0C3FC002197
:10208000D94806F0BFFCD94806F038FC00200BB058
:10209000F0BCBB46B246A946A046F0BD002309AF3E
:1020A000306A3A0000930C21033314F093FD0328A7
:1020B00000D08EE10F2106AB5A7B9B7B1B021343A2
:1020C0005BBA19400C29DBD1C94B306A09933A003D
:1020D00004230C21009514F073FD042800D15CE169
:1020E0000121C44806F08EFC029B059A9B00134315
:1020F000049A306A520113434A46D20113435A46A6
:10210000520213435246D20213436022BB703A700C
:102110009AB20823120AFB70073B7A700C210093D5
:102120003A00033314F04CFD042800D126E10221CB
:10213000B04806F067FC60233B70230A7B701023D5
:10214000FB700F3B306ABC703A0000930C210333E4
:1021500014F036FD042800D101E10421A54806F061
:1021600051FC6023069A3B70130A7B701423FB70AA
:10217000133BBA70306A3A0000930C21033314F019
:102180001FFD042800D1DBE005219A4806F03AFC47
:102190006023079A3B70130A7B701823FB70173B70
:1021A000BA70306A3A0000930C21033314F008FD32
:1021B000042800D1B5E006218E4806F023FC0598DE
:1021C00003F064F90B0080210200C905002003F030
:1021D00097FD040002980D0003F058F90B008021D0
:1021E0000200C905002003F08BFD0022029003913C
:1021F000814B2000290003F0D2F8802304000D0059
:10220000029803990022DB0503F0A2F802000B00FC
:102210002000290003F0C3F80022784B03F098F85F
:102220000022774B03F0BBF80022764B03F090F8C6
:10223000754A764B03F0B3F803F064F930805046EA
:1022400003F024F90B0080210200C905002003F0EF
:1022500057FD00226E4B03F0A2F80022674B03F0FB
:1022600077F8694A694B03F09AF803F04BF9402379
:10227000049A7080F2544A460133F2545A460133AC
:10228000F25442463B3B134012339B009B596A4633
:102290007364604B306AB36373635F4B0C21F36309
:1022A000502313844F3B009308AA013314F088FC99
:1022B000022823D000214B4806F0A4FB002342460D
:1022C000110170220A401A431B0A60217B7000240E
:1022D00001233970BA70306AFC703A0000935439A7
:1022E000033314F06DFC042866D00021414806F049
:1022F00089FB4A4806F002FB0120C8E60023306A49
:102300003A0000930C21033314F064FC032864D1D9
:1023100006AB5A7B9B7B1B021343414A5BBA1340BB
:10232000CDE70023306A0C21009308AA013314F092
:1023300051FC012800D142E73A4806F063FB3EE732
:102340000023306A0C21009308AA013314F042FCE8
:10235000012800D11CE7334806F054FB18E700239E
:10236000306A0C21009308AA013314F033FC0128D1
:1023700000D1F6E62B4806F045FBF2E60023306A72
:102380000C21009308AA013314F024FC012800D189
:10239000D1E6244806F036FBCDE60023306A0C2156
:1023A000009308AA013314F015FC012800D19BE624
:1023B0001C4806F027FB97E6306A01230C210094A5
:1023C00008AA14F007FC012893D0164806F01AFB5F
:1023D0008FE7154806F016FB51E6134806F012FB8E
:1023E0006CE7C046F0B6011064B70110A8B7011041
:1023F00060600004E0B701100000504000C0504091
:102400000000084000C08540CDCCCCCCCCCCF43F03
:10241000000068409A99193ED9CE773E5CB8011009
:102420008FFF00002CB801103CB7011030B585B00B
:102430003F236A460400006B137218F0A9FE0123C3
:102440000C21206A02AA009314F0BAFB002303AD0A
:102450002A000C21206A0093013314F0BBFB206B8F
:1024600018F026FE2B780120DB0601D405B030BD24
:10247000024806F043FA0020F8E7C0468CB8011085
:10248000F0B5DE4645464E465746E0B589B04F2387
:102490006A468046086B0C00137418F079FE01231D
:1024A0000C21206A04AA0093994614F089FB0023AA
:1024B00005AD2A000C21206A0093093314F08AFB31
:1024C000206B18F0F5FD2B78DB0600D5D1E002AAD1
:1024D00094460D2363441A785D780F232D026344DC
:1024E00015431A785B786DBA1B02134311226244BC
:1024F000577811783F020F437FBABAB2934613223E
:1025000062445678117836020E4376BAB2B202921D
:102510004022A25C5BBA9246ADB298B2022A00D1C8
:10252000DBE065D818B204F06BFA616B04F05BFA7B
:10253000616C04F058FA52464B46934003901800E1
:1025400004F05EFA011C039804F04DFAA0604123E8
:10255000E35C9946022B63D0022B00D9A7E038B286
:1025600004F04EFAA16B04F03EFA616C04F03BFA01
:102570004B46071C0120984004F042FA011C381C0D
:1025800004F031FAE0604223E75C022F5ED0022FB4
:1025900000D977E030B204F033FAE16B04F023FAAB
:1025A000616C04F020FA061C0120B84004F028FAFF
:1025B000011C301C04F017FA2061280004F020FAF6
:1025C0004F4904F0F6F94F4904F0F9F94E4904F087
:1025D000F3F92100606118224046083104F03CFB09
:1025E000404609B0F0BCBB46B246A946A046F0BD85
:1025F000032AACD104F004FA8D21C90504F0D9F9FD
:10260000616B04F0F0F9616C04F0EDF98221C90509
:1026100004F0E9F94123A060E35C9946022B9BD1C9
:10262000584604F0EDF98E21C90504F0C2F9A16BFA
:1026300004F0D9F9616C04F0D6F98121C90504F0E0
:10264000D2F94223E060E75C022FA0D1029804F0A7
:10265000D7F98E21C90504F0ACF9E16B04F0C3F998
:10266000616C04F0C0F98121C90504F0BCF9206156
:10267000A3E7264806F042F918220021404604F05C
:10268000E5FAADE7032F98D1029804F0B9F98D214E
:10269000C90504F08EF9E16B04F0A5F9616C04F052
:1026A000A2F98221C90504F09EF9206185E7032B78
:1026B00000D068E7584604F0A3F98D21C90504F05D
:1026C00078F9A16B04F08FF9616C04F08CF9822128
:1026D000C90504F088F9E06055E704F091F98E210E
:1026E000C90504F066F9616B04F07DF9616C04F0D2
:1026F0007AF98121C90504F076F9A06027E7C04680
:1027000000A43447CDCC34420000C841D0B80110F9
:1027100010B5064C436704610024029B84668367FE
:10272000039BC1660267C36710BDC04600504000EE
:1027300030B585B0437C040003ADC06F2B7018F03A
:1027400027FD6823E15C0023E06E2A00009301333B
:1027500014F036FA012808D0064806F0CFF8E06FEA
:1027600018F0A6FC002005B030BDE06F18F0A0FC0A
:102770000120F8E714B90110F0B50400682700261D
:102780001D4B85B01B78C06F02AD2B7018F000FD9B
:10279000E15DE06E01232A00009614F011FA012891
:1027A00008D0164806F0AAF8E06F18F081FC002067
:1027B00005B0F0BDE06F18F07BFC03ADE06F18F0E2
:1027C000E7FCE15DE06E03232A00009614F002FAB4
:1027D000032806D00A4806F015F9E06F18F068FCE7
:1027E000E5E7E06F18F064FC28786B7800041B02C2
:1027F0001843AB781843DBE75CC4011068B90110DB
:10280000B8B90110F0B5DE4657464E464546E0B52C
:102810000C0083B082460800FFF7AEFFA38BA062D6
:102820001B02C61AF71732003B000021E08BE6625C
:1028300004F0A2F8FA23DB0098464902C50D0D43C7
:10284000A844434623632B006B439946FA23320086
:10285000DB0098454ADA3B003000390004F08CF880
:102860004E10CF1732003B0092197B4192197B41E9
:1028700063654B465B004B445810D9174B469B0091
:102880004B44DE10DF172C4B9446A065E1652666AD
:1028900067662265984512DA284B99464D446D4388
:1028A000EB005B1B1A00DB1712184B41AD00A26551
:1028B000E3652A00EB1792197B4122666366624644
:1028C0004346981A206304F09BF81D4904F077F8FA
:1028D000102220602100504604F0BEF9504603B09B
:1028E000F0BCBB46B246A946A046F0BD3B00300056
:1028F000390004F041F800900191009D019E6B0F9A
:10290000F1001943E800401BB14102F007FE00222C
:102910000C4B02F044FD02F00DFE4B461B11A3656B
:102920004B46DB170022E36500238446226663667C
:1029300020656165C3E7C04624FAFFFFAC0D0000C7
:102940000000C8420000A03D30B585B0837C040083
:1029500003ADC06F2B7018F01BFC6823E15C0023F3
:10296000E06E2A000093013314F02AF9012808D000
:10297000064805F0C3FFE06F18F09AFB002005B091
:1029800030BDE06F18F094FB0120F8E7F4B90110B6
:10299000F0B5DE4657464E4645468846E0B5814688
:1029A00085B00800FFF7E8FE43465862DB6A4246FE
:1029B0009B468246DB17108B00215A46019303F099
:1029C000DBFF0C060B1241460025898A020A2243CE
:1029D000CC0312196B41414602920393019B488B31
:1029E0005A46002103F0C8FF4C06CB114146002592
:1029F000C98AC20922430C04A4185D4102980399B4
:102A000043469A6DDB6DA41A9D4143469C63DD638A
:102A10001A6E5B6E801A994102000B0041465046C7
:102A20000A644B64002103F0A7FF002306000F0097
:102A3000C917C902CA0AB6185F41F902720D0A43E2
:102A40007B15121BAB410025D91749044C0CA41867
:102A50005D416B04E00B18434346986403F0D0FFDC
:102A6000084903F0ACFF43461022586041464846EF
:102A700004F0F2F8484605B0F0BCBB46B246A946A1
:102A8000A046F0BD000020415039C9B210B5002366
:102A90000024082904D81848890041588F46022389
:102AA000403AD2B2082A04D8144992008A5897466C
:102AB0000224181CA34201DBC0B210BD201CFBE79E
:102AC0000A24181CA342F7DAF8E70323E8E70623F1
:102AD000E6E70A23E4E70324181CA342ECDAEDE757
:102AE0000624181CA342E7DAE8E70123D8E701240B
:102AF000181CA342E0DAE1E790CB0110B4CB01103F
:102B0000F0B54E464546DE465746E0B58DB0050069
:102B10000391080019006823E95408AB9946AA7488
:102B200016004A467D4B68741B78E86E13700023CC
:102B30000093013314F044F801280AD0784805F0D6
:102B4000DDFE00200DB0F0BCBB46B246A946A04653
:102B5000F0BD0A2001F072FC902304AA94465B4267
:102B600063449A46682398466E4BA02404936E4BA8
:102B700006AF9B460596434600263C70E95CE86E2E
:102B800001233A00009614F01BF8012800D1ACE0B4
:102B90002100584605F036FF0023524613530234F5
:102BA000B02CE8D14B460F22DB89C0201A40944656
:102BB000FF2293434A46D3810022A8460021FF27E3
:102BC0001500059EAF3C80012DE03A406A4013B2EB
:102BD000002B34DB520093B212B2002A35DB5A00CC
:102BE00093B212B2002A36DB5B009AB21BB2002B02
:102BF00037DB520093B212B2002A38DB5B009AB284
:102C00001BB2002B39DB520093B212B2002A3ADB1E
:102C10005B009AB21BB2002B3BDB01315200C9B200
:102C200095B210293CD0EA464B085B0053441A8CFD
:102C30000C42CAD1120A6A4013B2002BCADA5B00F6
:102C400043401AB293B2002AC9DA5200424012B28B
:102C500093B2002AC8DA5200424013B29AB2002B53
:102C6000C7DA5B0043401AB293B2002AC6DA5200B8
:102C7000424013B29AB2002BC5DA5B0043401AB24D
:102C800093B2002AC4DA5200424013B29AB2002B27
:102C9000C3DA5B0001314340C9B29DB21029C2D1F1
:102CA0002A004546120B624533D14B465B8862468B
:102CB000AB824B469B880399EB824B46DB8828000E
:102CC0002B834B461B896B834B465B89AB834B46FF
:102CD0009B89EB832023EA543200FFF7D5FE28744A
:102CE000124805F00BFE01202CE74346E86EE95C34
:102CF00007AA0223009613F06DFF022804D16B4649
:102D00009B8B5BBA9BB248E72100049805F07AFEE2
:102D100042E7074805F0F2FD13E7C046B4BB0110D7
:102D20001CBB0110D0BA011080BA011088BB011081
:102D300054BB011010B5C361029B00240362039BC6
:102D400004744362FE239B05416182618362848532
:102D500010BDC04630B50F2587B004006D44406AF1
:102D6000297018F015FA0123217C60692A0000936C
:102D700013F026FF012809D02978134805F042FEF8
:102D8000606A18F095F9002007B030BD606A18F04D
:102D90008FF9606A18F0FCF90023217C606905AAAC
:102DA0000093023313F016FF022807D02978074852
:102DB00005F028FE606A18F07BF9E4E7606A18F015
:102DC00077F96B46988ADFE7B8BB0110ECBB0110BE
:102DD000F0B5CE464746884680B5042183B081468B
:102DE0004046FFF7B7FF03F00BFE4346996A03F036
:102DF000FAFD03F059FE43461860FA239B009842FF
:102E00000AD810224146484603F026FF484603B040
:102E1000C0BCB946B046F0BD02F034FB0022244BE2
:102E200004000D0002F06CFF002206000F00214B91
:102E30002000290002F064FF1F4A009001911F4BFF
:102E40003000390002F0ABFA1D4A06000F0000986E
:102E500001991C4B02F0A3FA02000B00300039006C
:102E600002F06DFA220006000F002B00200029005E
:102E700002F095FA144A154B02F091FA02000B0089
:102E80003000390002F064FA114A06000F00114BBD
:102E90002000290002F083FA0B0002003900300004
:102EA00002F056FA02F02EFB43461860A9E7C0462E
:102EB00000001040000008403B288FB17A28653D93
:102EC0006EF41EC9862B443EB0CA182E915C153F85
:102ED000287E8CB96B09F03FF0B5CE464746884650
:102EE00080B5052183B081464046FFF733FF03F0EC
:102EF00087FD4346996A03F076FD03F0D5FD43460E
:102F00005860FA239B0098420AD81022414648464E
:102F100003F0A2FE484603B0C0BCB946B046F0BDBF
:102F200002F0B0FA0022244B04000D0002F0E8FE8B
:102F3000002206000F00214B2000290002F0E0FED5
:102F40001F4A009001911F4B3000390002F027FA10
:102F50001D4A06000F00009801991C4B02F01FFA51
:102F600002000B003000390002F0E9F922000600EF
:102F70000F002B002000290002F011FA144A154B13
:102F800002F00DFA02000B003000390002F0E0F907
:102F9000114A06000F00114B2000290002F0FFF932
:102FA0000B0002003900300002F0D2F902F0AAFA58
:102FB00043465860A9E7C0460000104000000840A2
:102FC0003B288FB17A28653D6EF41EC9862B443E9E
:102FD000B0CA182E915C153F287E8CB96B09F03F62
:102FE000F0B5040087B016001D00002701741029F9
:102FF00000D176E0482900D171E007212000FFF7D9
:10300000A9FE010A8AB2C9B28F4200D06BE0C1B2F8
:1030100081295ED100212000FFF79CFE3D4B03AAD1
:10302000184000235070000A13709070217C606972
:103030000093033313F0C4FD032865D10021200061
:10304000FFF788FE344B04AA1840F302184300230C
:1030500080B25070000A13709070217C60690093F8
:10306000033313F0ADFD032849D12C230021E6548E
:103070002000FFF76FFE294B05AA1840AB0118434B
:1030800000235070000A13709070217C60690093D7
:10309000033313F095FD03282CD12D23E5540C2D7B
:1030A00026D81F4BAD001F49E85803F09CFC2C2389
:1030B000E35C032B04D81C4A9B00995803F093FC53
:1030C000A0620A2001F0BAF9184805F017FC0120A7
:1030D00003E0174805F096FC002007B0F0BDD427A8
:1030E0008BE7C42789E73900124805F08BFCF3E72A
:1030F0000C48DCE70021104805F084FCCDE70021F6
:103100000D4805F07FFCB0E700210B4805F07AFC84
:1031100094E7C046FEFF0000FFE700003FFC000010
:10312000E8CB011027A0893BD8CB0110BCBC011013
:1031300060BC011018BC0110B8BB01108161704760
:103140000721036AC26904339B0099507047C04647
:10315000F8B5CE4647460A6ACB6992009B1880B5FF
:103160001F6A1B6A3A149846FF233C0E1340060060
:10317000200218430D00914603F042FC104903F071
:103180001EFC68603804000C03F03AFCE4190C499A
:1031900003F015FC4C443B12E4184346E4B2DFB2A2
:1031A000E41B63425C412860290030002C72182225
:1031B00003F052FD3000C0BCB946B046F8BDC04671
:1031C00000002041F0B5D64646464F460125040092
:1031D000030002000100C0B58EB002950195AA4619
:1031E000A5696448243320321C31009513F076F928
:1031F000061E00D1B0E0236AE7699846636AA569B4
:1032000099465D4B2800F918090D0631C9B200F046
:1032100057FA53462A00414600933800012313F021
:10322000B5F880235B020A934B464A461E33D2010F
:103230001B031343F8220B9392006B011340F822F7
:10324000ED031203154080222B43D20413430D9348
:10325000902305201B030C9301F0BEFB02F012F932
:10326000464A474B02F09BF802F090F9EC218905A1
:1032700003F0A2FB824603F017FC85B20020002D6C
:103280005AD12D0405434A4641460AAB38000A95F7
:1032900013F0D6F8414601238B403A48072584466F
:1032A00080203A68E1691343226A3B6053009B180F
:1032B000DB00CB18043263449200000618601860EB
:1032C000555004A82100FFF743FFFA20C00001F089
:1032D000B5F8236AE26904339B009D50210004A8DD
:1032E000FFF736FF237A012B3FD0274B0125984665
:1032F000072704222900404605F084FBFA20C0007D
:1033000001F09CF8236AE26904339B009F5021007E
:1033100004A8FFF71DFF237A012B21D00135052DCD
:10332000E7D11A4805F0EAFA002630000EB0E0BCFA
:10333000BA46B146A846F0BD280003F05BFB011C6D
:10334000504603F036FB8721C90503F04CFB03F020
:10335000ABFBC0B2000294E70D4805F053FBE3E776
:1033600029000C4805F04EFBDFE70B4805F0C6FAD4
:10337000DBE7C0461CCC01100000E0AF8DEDB5A02E
:10338000F7C6B03ED01000003CBD0110A4BD011036
:10339000E8BC011074BD01101CBD01108361009BCD
:1033A0000161C361019B42610362704700B5002364
:1033B00085B0042A07D8154B92009B58C9019F4637
:1033C0003F230B43DBB203AA022153700023117089
:1033D000006942310093023313F0F2FB022801D15D
:1033E00005B000BD02210A4805F00CFBF8E73023C8
:1033F0000B43DBB2E7E7CBB2E5E703230B43DBB2DA
:10340000E1E70C230B43DBB2DDE7C04664CC0110DF
:10341000D0BD011070B584B0040002AE006A0D008A
:10342000317017F0B5FE012320693200009344216A
:1034300013F0C6FB236A012809D0180017F038FEE4
:103440002900104805F0DEFA002004B070BD180015
:1034500017F02EFE206A17F09BFE002320694421FE
:10346000009303AA013313F0B5FB012804D029000F
:10347000054805F0C7FAE7E7206A17F019FE6B4622
:10348000187BE2E778BE0110B4BE011070B584B0BD
:10349000040002AE006A0D00317017F079FE0123BE
:1034A000206932000093442113F08AFB236A01282B
:1034B00009D0180017F0FCFD2900124805F0A2FA07
:1034C000002004B070BD180017F0F2FD206A17F05C
:1034D0005FFE002320694421009303AA023313F006
:1034E00079FB236A022807D0180017F0E1FD2900B4
:1034F000054805F087FAE3E7180017F0D9FD6B4699
:103500009889DEE704BE011040BE011070B50C00C2
:1035100005000D212000FFF7B9FF0921A080200040
:10352000FFF7B4FF0B2120802000FFF7AFFF102230
:1035300060802100280003F08FFB280070BDC0468A
:1035400030B58C2385B06A46DB01938100230500EA
:103550004421006903AA0093023313F031FB0228CF
:103560001BD101212800FFF755FF0221040028008C
:10357000FFF750FF032104432800FFF74BFFE4B29D
:10358000044308212800FFF745FFE4B20443E4B2F6
:103590000120002C06D105B030BD0021044805F003
:1035A00031FADEE7034805F0A9F90020F3E7C04649
:1035B000D0BD0110E8BE0110F0B54F464646D646D4
:1035C000C0B586B01D000EAB1B780F0098460FAB40
:1035D0001B780021040016009946FFF71BFF01002D
:1035E0007D280BD0334805F00DFA00239A4650464B
:1035F00006B0E0BCBA46B146A846F0BD2000FFF7D1
:103600009FFF82460028F0D001212000FFF702FF33
:10361000012303AA1370063398430023074357700E
:10362000206944210093023313F0CAFA02283CD1E6
:1036300001212000FFF7EEFE012304AA13700733D7
:1036400098430023F60030435070442120690093D2
:10365000023313F0B5FA022822D101212000FFF72E
:10366000D9FE012305AA13700F33984300232D01BF
:1036700028435070442120690093023313F0A0FACC
:10368000022808D120004A464146FFF78FFE0A482B
:1036900005F034F9ABE70121084805F0B3F9F1E78B
:1036A0000121064805F0AEF9D7E70121034805F0EE
:1036B000A9F9BDE718BF011058BF0110D0BD011016
:1036C000094A83009A1810B5146840225440803289
:1036D0002240064CC000A44663441A60044B9C463A
:1036E0006044416010BDC04604C0014004D00140A8
:1036F00000400140074B8000C3181B68C9009200BE
:103700000A435A400C231340034A94466044036022
:103710007047C04604C0014004D00140054B800002
:10372000C3181B684B4001211940034B9C46604461
:103730000160704704C0014004D00140064B800086
:10374000C3181B68054A0901594094463023604458
:103750000B4003607047C04604C0014004D00140E4
:103760000123D0228340120693629361094A8300A9
:103770009A1811684022514080320A400649C00020
:103780008C4663441A60054B9C46052360444360A5
:103790007047C04604C0014004D0014000400140D1
:1037A000094A83009A1811684022514080320A4029
:1037B0000649C0008C4663441A60054B9C461F2393
:1037C000604443607047C04604C0014004D00140DB
:1037D000004001408023DB051868000F7047C04699
:1037E0000FB400B5084883B005F088F8049B002B9F
:1037F00007D005A91800019104F0BCFE034805F0AC
:103800007DF8012004F0CEFE80BF0110A4B70110A6
:10381000EFF3108072B6034A1368002BFCD0BFF39D
:103820005F8F70472C0100D0BFF35F8F0022024BE7
:103830001A6080F3108870472C0100D070B5EFF348
:10384000108C72B60D4D2B68002BFCD0BFF35F8F30
:103850000724CB08C618C05C01230C40A3401C0001
:103860000440034207D118433070BFF35F8F2C60D0
:103870008CF3108870BD1000FFF7B2FF2C0100D050
:10388000F8B54746CE46884680B5EFF3108C72B641
:103890001C4D2C68002CFCD0BFF35F8F9A4222D8BD
:1038A00007210126894602E00132934218D34D4692
:1038B00037001540AF40D4080119045D2742F3D109
:1038C00010003C430C70BFF35F8F00220D4B1A6059
:1038D0008CF3108800280EDBC0BCB946B046F8BD9A
:1038E00001204042EFE7BFF35F8F00232B608CF392
:1038F0001088012040424346002BEDD00898FFF786
:103900006FFFC0462C0100D030B5EFF3108C72B6BB
:103910000A4C2368002BFCD0BFF35F8F07230122E2
:103920000B409A40CD08435D93434355BFF35F8FEF
:10393000002323608CF3108830BDC0462C0100D0DA
:10394000044A1078431CDBB2172B00D910231370E4
:103950007047C046B41A002010B5064B064C82B022
:103960000100009318221F232000FFF789FF02B0F7
:1039700010BDC04690BF01106C4800200021044BD0
:10398000044ABFF35F8F02C39342FAD17047C04627
:10399000000100D0800100D0054B064A1360064AA2
:1039A000136053609360D3601361536193617047F8
:1039B0008080808000E400E004E400E01F231840E1
:1039C0001E3B8340002905D0C021044A49005350C2
:1039D00013607047802201498B50FAE700E100E054
:1039E00001228240034B1B6813405A1E9341D8B2F8
:1039F0007047C04600E100E001238340014A1360A4
:103A00007047C04600E200E0064B10309B68800023
:103A1000C358054A00209B1A5F229A424041C0B217
:103A20007047C04600ED00E0B81A002070B50D00E8
:103A3000EFF3108672B60F4A1368002BFCD0BFF369
:103A40005F8F0D4B10309B6884001B590B4A9342CB
:103A500003D09D4201D001F01DF9074B9B681D5119
:103A6000BFF35F8FBFF35F8F0022024B1A6086F3B4
:103A7000108870BD240100D000ED00E0CD010010E1
:103A8000F0B557464E46DE464546E0B585B00600E1
:103A900000911700EFF3108B72B66A4A1368002B7F
:103AA000FCD0BFF35F8F0025674B5D579A46002D12
:103AB00000DAA9E06B00654C01935B199B00984606
:103AC000A146C1444B4652469B7910361370604B59
:103AD000B6009B6899590B1B5F2B33D95D4B9942FC
:103AE00000D0ACE0019B42469C465B4B6544AD0078
:103AF00063535A4B0232A218043B9B1A1B05584AC7
:103B00005B0D651913436B80564B0121AB80FF237E
:103B1000AB71009BEF71AB604B460B4319004C4BF4
:103B20009B689951BFF35F8FBFF35F8F0022454BB6
:103B30001A608BF3108805B0F0BCBB46B246A946AC
:103B4000A046F0BD01200A008243D3798C46BB42D7
:103B500031D84546130044491B1B5B415943090DAD
:103B60003D4B63533D4B02356519043B5B1B1B0505
:103B70003B4D5B0D2B43AA464D466B800425AC465E
:103B80005546E044131F44441B1B1B055B0D1D439E
:103B90004B46997100999D8099604946DF71334B7E
:103BA00001431360BBE75800C01880002018C1799A
:103BB000B9422FD902000623D356002BF3DA029321
:103BC0002B4B61460393131D9A4604235B429C468C
:103BD000E14450464B461B1A1B055B0D9C46204B8F
:103BE000957198466346404603439380019B5A195A
:103BF0009200039BA418A380029B1C4AA371009B04
:103C00002260E771A3608AE701F044F8002553467B
:103C10005D574FE7908802934005131D9A460315A0
:103C200061469C464046D444634604302018181A26
:103C3000E0230005400D1B0218430390C5E701F087
:103C400029F84FE7240100D0704D0020B81A002059
:103C500000ED00E0CD01001000A1FFFF181B0020C7
:103C600000E0FFFF01BDFFFFAAAA00000148804756
:103C700001BD000070B501240443EFF30581EFF3AB
:103C8000108C72B62D4A1368002BFCD0BFF35F8FE7
:103C90002B4A05002B4BAD1A6D416B431B0D2A4D72
:103CA0008900AE685BB27658A6422CD006215156E8
:103CB00099422CD012215156994234D01E2151568E
:103CC000994232D02A215156994230D0362151564C
:103CD00099422ED042215156994222D04E2151561E
:103CE000994228D05A2151560724994210D0174A98
:103CF000117813708171BFF35F8F00220F4B1A6030
:103D00008CF3108870BDAA68114C5450EFE7002462
:103D10006100091989005218FF2191710D499180A4
:103D2000E5E70524F4E70124F2E70224F0E70324A1
:103D3000EEE70424ECE70624EAE7C046240100D0BD
:103D4000B81A0020AAAA000000ED00E0704D002083
:103D5000CD01001001BDFFFF10B5084B084C82B02B
:103D600001000093002205232000FFF789FD0028B1
:103D700001DB1F23181A02B010BDC046ACBF0110F2
:103D8000744D0020024B9C466144890001607047DD
:103D90004000003470B5114C114DAC420FD2FF26DB
:103DA0002368002B0CD0FFF7CBFD01002000FFF7AC
:103DB000E9FFA680BFF35F8F0834AC42F0D370BD3B
:103DC000FFF7BEFD01002000FFF7DCFF2671BFF307
:103DD0005F8F0834AC42E3D3F1E7C04628230020CC
:103DE0004823002010B50400FFF7AAFD01002000C1
:103DF000FFF7C8FFFF232371BFF35F8F10BDC046DD
:103E000010B504000120FFF7A7FD034BC3189B006A
:103E10002360BFF35F8F10BD40000034034B9C460E
:103E2000614489000160BFF35F8F70474000003438
:103E30000A4B1968EFF3108072B60A68002AFCD0AA
:103E4000BFF35F8F1B68BFF35F8F00221A6080F3A0
:103E5000108840BF002000217047C046384D002028
:103E6000F0B5DE4657464E464546E0B587B0EFF31F
:103E70000583032201251A40954091008846A946F2
:103E8000B34B03925C58B34B1D60B34B04934B464A
:103E9000B24843630823E55E002D37DAA3881BB2DE
:103EA000002B00DBADE0A379002B00D0EEE008236F
:103EB000E05E002820DB430062691B18DB00D3189A
:103EC0009E68DD68731C00D111E1A44801004144E3
:103ED000826A0B69B71A9B1A9F4215D30123026AA3
:103EE000039883401A420FD09C4800F047FC8D4253
:103EF00002DCCCD18642CAD940BF07B0F0BCBB4679
:103F0000B246A946A046F0BD0E61EDE762696B00BE
:103F100092465B19DB009A4453469E68DF6800F0C6
:103F20002DFC8F42BADC00D103E1002F00DAE8E07B
:103F30005246534652691B699346049A934200D1F4
:103F4000D9E052460821605E528800045946104369
:103F50009847009001910099019A0B0010001343BB
:103F600000D1CEE013000A00B61A9F41002806DBFC
:103F70007A4800F003FC009E019F36184F415346DB
:103F80009E60DF6000229A5E002A00DA86E7530016
:103F900099186069C900411802938B68C9689B46EB
:103FA000B94200DD7AE702D1B34200D976E70823AF
:103FB0009C46A444059565462281A446029B2C009C
:103FC00006E053009918C90041188D68C968AB46CE
:103FD0009B18DB00C318B94206DC00D1B3E01C001B
:103FE0000023E25E002AECDA230064469C46534636
:103FF0001A806346059D1D80A3881BB2002B00DA42
:1040000051E72269EFF3108172B61368002BFCD0E0
:10401000BFF35F8F0123A7885B42A3803FB2236970
:10402000BFF35F8F00221A6081F31088002F00DA3F
:1040300039E72300083322009A4666697B00DB19C2
:10404000DB00F318996850468C460824115FDD6840
:10405000002910DB029306E0AB4244D00023E15E6E
:104060002000002906DB4C006418E4003419E368E2
:10407000AB42F1DD029B078000201F5E1980002FFC
:10408000DCDA1400A379002B00D110E70023A37120
:1040900026000823E15E08364B1C00D12CE70800FF
:1040A000A246656902E03E004B1C1AD04B005B182B
:1040B000DB00EF180A008C46E95E7B881BB2002B00
:1040C000F1DA01235B42DC17BB60FC60824205D061
:1040D000534631801B893B8053461A8160464B1CF6
:1040E000E4D15446E5E6A3686345B7D9C2E76B1C43
:1040F00000D0EAE6F8E65B4658461B699847002878
:104100001BD153461B8822692381EFF3108372B6BB
:1041100011680029FCD0BFF35F8F514662880A8086
:1041200022696580BFF35F8F0021116083F31088DF
:10413000B4E6864200D8F8E6B0E65B461A685B68EB
:104140000092019307E7B34500D848E74CE7C04623
:10415000184D00203C700540613E001000400540B5
:1041600070B52E4C2569002D04D00A212C48FFF78C
:1041700009FE70BD2B4E0321300000F0F5FAE66019
:10418000FFF7DEFB284B03229C46D02322701B0640
:104190001B6801216370254B6044A3600F238000DE
:1041A00020610220638063694942A1801980023145
:1041B000198647311D83585218315A5275325C396D
:1041C00099521832013199521832013199521832EC
:1041D00001319952083518329D52023118329952E4
:1041E0001832013199521832013199521832013185
:1041F00099521832013199521832013199520C4BAF
:104200000C49DC6001303562FFF710FC012103200E
:10421000FFF7D4FB084B1D60A7E7C046301B00200A
:10422000384D00200040054040000034FFFF1000E2
:10423000184D0020613E001038600540004870476E
:10424000301B0020F8B51F0008AB1B7804001600D7
:10425000002B08D100F09AFA32003B00121A8B4171
:10426000002B00DA52E02269EFF3108072B6136877
:10427000002BFCD0BFF35F8F0223E15E63694A002D
:104280005218D2009B182269002936DB1D886580F0
:10429000BFF35F8F0025156080F31088069A9E603B
:1042A000DF601A61079A5A615A8801325204520C2F
:1042B000101C002A1FD082B25880080410432669BF
:1042C000EFF3108772B63268002AFCD0BFF35F8F1D
:1042D000A2881A80A1802369BFF35F8F00221A6031
:1042E00087F310880A4923788C4601329A40E368A4
:1042F00063441A60F8BD0120DDE7BFF35F8F002340
:10430000136080F3108801204042F3E70020F1E7BA
:104310003C20000070B501000469EFF3108C72B608
:1043200020680028FCD0BFF35F8F02200D5E4C692F
:1043300068004019C00024180869002D36DB268863
:104340004E80BFF35F8F002606608CF31088E36019
:1043500063880498013320615B0405985B0CA260BC
:1043600060611A1C002B1FD093B22804628018438E
:104370000A69EFF3108C72B61368002BFCD0BFF300
:104380005F8F8B8823808D800B69BFF35F8F002246
:104390001A608CF310880B7801329A40CB68084978
:1043A0008C4663441A6070BD0122DDE7BFF35F8F66
:1043B000002303608CF3108801204042F3E7C046DD
:1043C0003C20000010B543890A1493421ADD5300C3
:1043D0009B184269DB00D3180469EFF3108C72B6A6
:1043E0002268002AFCD0BFF35F8F5A88090494B278
:1043F000090C8A4208D00369BFF35F8F00221A605C
:104400008CF31088002010BD8022120214435C80BF
:10441000012302698371BFF35F8F002111608CF368
:104420001088044902788C469340C2680120624497
:104430001360E8E73C20000040787047F0B5C646BE
:1044400000B582B0040000F0A1F9FA2206000F00C6
:10445000200000230021920002F08EFA8019794199
:1044600004000D1E02DA01242E4D64420626764217
:10447000F71736196F41AF4214D811D000F086F902
:1044800032003B00121A8B41002B15DC002B46D06A
:104490002000290000F084F902B080BCB846F0BDCD
:1044A000A642EBD90026002700F070F932003B004D
:1044B000121A8B41002BE9DD00F068F932003B0055
:1044C000121A8B41002B0ADB00230193164B32009A
:1044D000009316483B00FFF71DFF0130D8D00023A2
:1044E0003900B0469C46124A1248536A994204D891
:1044F000966A4645CCD29942CAD10668EFF3108736
:1045000072B63368002BFCD0BFF35F8F0368BFF334
:104510005F8F66461E6087F3108820BFE5E7002A9C
:10452000B6D0C9E7FFFFFF7F313E0010301B0020EF
:1045300000400540384D0020F0B557464E46DE4657
:104540004546E0B506000F0085B0EFF305839946B8
:104550008B46002B12D0384900204B6ABB4206D351
:104560008A6ADB1B591E8B41B2424041184305B099
:10457000F0BCBB46B246A946A046F0BD2F4B9A46BA
:10458000DB68984653461B784046039300F0F6F8E4
:104590004246039B040004339B009B580D001B1AEA
:1045A00039003000001BA941894510DC0DD020BF27
:1045B000214A0020536A5B45D9D3926ADB1B591EFE
:1045C0008B41B24240411843D1E78342EFD900F01A
:1045D000DDF832003B00121A8B41002B1ADB00235E
:1045E0000193174B3200009350463B00FFF792FEB9
:1045F000011E0FDD104B5A6A5A451BD39B6AB3420A
:1046000016D35046FFF7DEFE0B4A0020536A5B4587
:10461000ADD3D2E7084A0020536A5B45A7D30020F8
:10462000926ADB1BB24240415A1E934118439EE7F7
:104630005A45E6D120BFE4E700400540301B00208A
:10464000313E0010F0B5CE464746110080B583B02C
:1046500004009C460C9D194300D16CE06146DB17B9
:104660000193009353401E00019B4B401F00009894
:104670000199361A8F4163460A996B600B9BAC60B7
:1046800029612A606B6100F081F880197941002965
:1046900002DA0120314940422269EFF3108972B6F3
:1046A0001368002BFCD0BFF35F8F0223E65E6369C3
:1046B00072009219D2009B1822699046002E42DBAC
:1046C0001A886280BFF35F8F002247463A6089F301
:1046D0001088234A9860D9601A615A885D61013256
:1046E0005204520C111C002A2BD088B2320402430F
:1046F00059802069EFF3108772B601680029FCD059
:10470000BFF35F8FA1881980A6802369BFF35F8FF5
:104710000021196087F310881248237884460131FC
:1047200099400120E36863441960EA6003B0C0BCAB
:10473000B946B046F0BD00230126002701229C4661
:1047400099E70121D1E7BFF35F8F0023136089F35D
:104750001088012200205242E7E7C046FFFFFF7F9A
:10476000613E00103C20000010B5024A0248FFF7ED
:1047700065F810BDC8BF0110704800200300416AF1
:104780000A00986A596A8A42FAD17047034B596AFB
:104790000A00986A596A9142FAD170470040054070
:1047A000064A536A9942FCD807D1044B02E05A6A80
:1047B000914202D19A6A9042F9D870470040054070
:1047C00010B513F0E9FA10BD0022835E0A4A944640
:1047D00063444B610223C356013B0B610323C35661
:1047E000CB600523C3568B600623C3564B6007235B
:1047F000C3560B607047C04694F8FFFFF8B5DE461D
:104800004E4657464546E0B58B4605000A991800C6
:10481000160000F059FB0A9B6C001F02324B641912
:104820009C46A4006444636881469F4200D9676047
:104830002B1FDBB29846012B30D9C02380229B016D
:10484000E31812011A60294BAD0059599A46002904
:104850001BD17301E026226853401E40802342464C
:104860005B01E3181E60012A30D9802380229B015E
:10487000E31812011A6053464A4667605A51F0BC69
:10488000BB46B246A946A046F8BD586900F01CFBDD
:10489000013043001B18033BFDD2DAE75B46012BD6
:1048A000CBD1C02303229B01E3181A60023AA3680C
:1048B0001A42FCD07301E0262268AD0053401E402E
:1048C00080230A4A5B019246E3181E605A4621681B
:1048D000514003220A401A6001225B469A40A368B5
:1048E0001A42FCD0C1E7C046008000407848002052
:1048F000F0B546464F46D646C0B51F00344B44007F
:104900009C462418A4006444636888461600FF2B64
:1049100002D880235B006360031FDBB29A46012B41
:1049200030D9C02380229B01E31812011A60294B61
:1049300085005959994600291BD17301E026226848
:1049400053401E40802352465B01E3181E60012A3B
:1049500030D9802380229B01E31812011A60802342
:104960005B0063604B465F51E0BCBA46B146A84667
:10497000F0BD586900F0A8FA013043001B18033B52
:10498000FDD2DAE74346012BCBD1C02303229B01A2
:10499000E3181A60023AA3681A42FCD07301E026B9
:1049A0002268850053401E4080230A4A5B019146DD
:1049B000E3181E6042462168514003220A401A60F3
:1049C000012342469340A2681342FCD0C1E7C0468F
:1049D0000080004078480020014B8000C05870479C
:1049E00078480020F8B5040021481E0017000D008B
:1049F00000F06AFA0100380000F066FA069B3604FF
:104A00001B031E432368002B20DB1A4B1A49E318B3
:104A10005A1E93418022920194465B421B0B174A17
:104A20001B0363441360164A13601F000A68974310
:104A3000FBD1144B2560E2182123A060136023688A
:104A4000002BFCDA0823E6601360F8BD3F232268E0
:104A50001340AB42D9D1A3681B051B0D8342D4D1AF
:104A6000EE22E368D2021340B342CED1EDE7C04656
:104A7000001BB7000040FDBF08C0004000E0004040
:104A800000F0004004300000024B1A68024B5A60EC
:104A90007047C046F04C002000800540194B1A4A70
:104AA00010B5DA618022194BD2051A60184C194AE8
:104AB000146000290AD0E022174BD2041A600028A3
:104AC00009D18022144B12061A6010BDE022D204D4
:104AD0001A600028F5D043011B1A9B001818802388
:104AE00000015B04984209D203000C4A1360802243
:104AF000044BD2055860084B1A60E6E7084B1800D3
:104B0000F3E7C046008005402131B76A00B0054098
:104B1000FCFF01000820014000A00540F04C0020EF
:104B2000FFFFFF0010B580241C4BE4051C6000282B
:104B30001AD001231A4C18431A4BDC611A4C44401A
:104B40001C62596298628021144BC905196017488C
:104B500017490860E021C9041960002A07D18022A2
:104B6000144B12061A6010BD0E4BD861EBE75301CF
:104B70009B1A9B009A18802312015B049A4209D267
:104B800013000D490B60074B5A608022094BD20578
:104B90001A60E8E7094B1A00F3E7C04600B0054089
:104BA000D3C007B0008005402D3FF84FFCFF010047
:104BB0000820014000A00540F04C0020FFFFFF004E
:104BC000024B9868431E9841C0B270470080054070
:104BD0008023024A9B000B43D3627047008005404C
:104BE000002310B50100988A1B8B984710BDC04662
:104BF000162310B50100188802331B88984710BD92
:104C0000F8B54746CE4680B50F1E18D014239946F6
:104C1000043304000025012698464B461888434675
:104C200021681B88984701C4431E984101350640FE
:104C3000AF42F2D13000C0BCB946B046F8BD012643
:104C4000F8E7C046002370B504000D00988A0549B6
:104C50001B8B984703000020002C01DB0130A04093
:104C60002900984755420000AA23064A1B011360F9
:104C70008D235B00D3600449044B19605368002BFB
:104C8000FCDA70470040024000B0FA0000600240C9
:104C90007047C04610B50148FEF7A2FDECBF0110F9
:104CA00070B5074D074EB54209D20024013E761B70
:104CB000B60808CD984723000134B342F9D170BD3E
:104CC000B0B10110ECB1011070B5074D074EB542FF
:104CD00009D20024013E761BB60808CD9847230070
:104CE0000134B342F9D170BDE4B10110ECB101104F
:104CF000054B064A06491A60064A074B1A6010001F
:104D00000B689843FBD1704700E00040BFCDFBFE2D
:104D100008C00040FE7F3C0000F00040044BDB6C0C
:104D2000002B03D18022034BD2021A607047C04689
:104D3000000011504C201150044A054B1A60054ADE
:104D40001368DB018033FBD17047C046FFFFFF01D2
:104D500000F0004008C000404022034B9A675A67A9
:104D60001A67DA667047C04600F0014010B5FEF7DA
:104D700005FE10BD70B5044D044CA968C02220008A
:104D800001F06AFFAC6070BD00ED00E000000020A3
:104D9000002310B5294C82B0A367FFF765FF0122FD
:104DA000274B1A60636C012BFCD10322254B1A6040
:104DB000224A936B012BFCD1013300930121224A3B
:104DC00022480433FFF70EFE052301210093204AF9
:104DD0002048FFF707FE0022022104201E4BFFF7A8
:104DE00087FD0022012105201C4BFFF781FD0022D9
:104DF000002107201A4BFFF77BFD0022002108202D
:104E0000174BFFF775FD8023DB0000930022002184
:104E10000920134BFFF7F2FC0022104B0021062063
:104E2000FFF766FD0420FFF7D7FD0E4900F04CF8B0
:104E300001000020FFF7CCFE02B010BD0080004052
:104E40003CB0004030B00040002F68590080024064
:104E5000008C864700C00240001BB7004059730712
:104E6000006CDC0240420F0001480421014B18474E
:104E7000501B0020014C0010124A936F9B0815D262
:104E80009066D166002905D0FFE7FFE7FFE7516F85
:104E9000106F704704B580210906C21751400028E1
:104EA00000D0C84316F01CF9002104BDF0B5146E03
:104EB000556E576F166FFFF7E3FF14665566576719
:104EC0001667F0BD000000D0114A936F9B0813D203
:104ED00010665166002905D0FFE7FFE7FFE7516F35
:104EE000106F704704B5002801D00020C04316F0B1
:104EF000F7F8002104BDC046F0B5146E556E576F2B
:104F0000166FFFF7E5FF1466556657671667F0BD25
:104F1000000000D094464A4A926F9208624601D23D
:104F200028E0C046F0B5464E346E756E776F366F2A
:104F300000F020F89446424A146655665767166793
:104F40006246F0BD94463E4A926F9208624601D294
:104F500054E0C046F0B53A4E346E756E776F366FDA
:104F600000F04CF89446364A146655665767166743
:104F70006246F0BD002B24DB11D000293EDA00B5DB
:104F8000C943404200D1013100F038F8C9434042E2
:104F900000D10131DB43524200D1013300BD002A70
:104FA000EBD1002801D1002905D00020C90FC90785
:104FB00001D1C043410800B516F082F80022002359
:104FC00000BD00B500290ADBDB43524200D10133AA
:104FD00000F014F8C943404200D1013100BDC9437B
:104FE000404200D10131DB43524200D1013300F095
:104FF00005F8DB43524200D1013300BD002923D123
:10500000002B18D1002A0CD0BC460D4F38667A66AA
:1050100000210023FFE7FFE7FFE77A6F386F67465D
:105020007047002801D00748010000B516F048F885
:105030000022002300BD02000B0000200021704769
:10504000000000D0FFFFFFFF002B00D0BFE0130CDB
:1050500028D1002AE7D080B4114F39667A66FFE77D
:10506000FFE730B4040C7B6F396F1B0423433B66AE
:105070007A66FFE7FFE7FFE7C04684B27B6F3D6FCC
:105080001B0423433B667A66FFE7FFE7C046002325
:105090002C042D0C7A6F386F00196941B0BC704731
:1050A000000000D0F0B594460025140E01D1120284
:1050B0000835140F01D112010435940F01D192006B
:1050C0000235D40F01D152000135D40B0134254FE4
:1050D0007C66254C3C660E0C93B2FFE7FFE7FFE7CA
:1050E0003C6F6643360C7703BE467343DF0B5B04AD
:1050F000C01AB941130C7343DB18C91ACE086643B2
:10510000360CB64493B273431F0F1B01C01AB9414A
:10511000130C73431F0B1B05C01AB941860D8F0278
:105120003E436643360C092D24DB520A7243801A33
:105130007703460A6643360C16235B1BDE40DF40CE
:10514000BF1964466643821B70460435063301006E
:10515000D940A840C01900D30131A24206D2002391
:10516000F0BD0000000000D0FFFFFFFF121B013068
:10517000F3D3F1E709277F1BFE406446A2B27243D6
:10518000801A00D20139220C7243130C1204821AC5
:1051900099410B007046043513370100F940A840CF
:1051A000801900D30131002B02D1A2420AD2F0BDF6
:1051B000013000D30131121BFAD2013BF8D1A242D7
:1051C00000D2F0BD013000D30131121BF7E7F0B57A
:1051D0001C0C00D080E00CB400251C0A04D11B027A
:1051E000160E3343120208351C0B04D11B01160F97
:1051F0003343120104359C0B04D19B00960F3343BB
:1052000092000235DC0B02D192185B4101351C0083
:10521000971864410134464F7C66464C3C660E0C40
:10522000FFE7FFE7FFE7C0463C6F6643360C7703B6
:10523000BE4697B27743C01B00D20139C01B00D2D3
:1052400001399FB27743C91BC91B170C77437E04F2
:10525000FF0B801BB941CE086643360C0C2D33DBA7
:10526000B644120B1F053A431B0B97B27743C01B82
:1052700000D201399FB27743C91B170C77433E0414
:105280003F0C801BB941860D8F023E4366432927A0
:105290007F1BFE400C3D7746AF40BF1930BCA2B229
:1052A000ABB272437343801A9941220C7243130CC0
:1052B0001204801A994102000B000137001BA9411A
:1052C000F9D2781E0021F0BD0C277F1BFE407746E7
:1052D0007F0BAF40FF19E0E700245D1C07D0144F9F
:1052E0007D663966FFE7FFE7FFE7FFE73C6F95B2B2
:1052F0009EB265436643401BB141150C1E0C6543CD
:10530000664336042F0C3E432D04401BB1419942A5
:1053100004D202000B0020000021F0BD01D1904218
:10532000F7D3801A994101349942F2D3F6E700008D
:10533000000000D0FFFFFFFF48404140484018B444
:105340001B4B5B68FC46019308BD04DF5B600010EB
:1053500018B4174B1B68FC46019308BD00DF65605D
:1053600000109446134A926F920809D2624618B40C
:105370000F4BDB68FC46019308BD0CDF1D6300107A
:105380000C4AF0B5146E556E576F166F6246FFF7F4
:10539000EEFF084A1466556657671667F0BD18B4E5
:1053A000034B9B68FC46019308BD08DFC1610010F8
:1053B000E03C0020000000D0FFB55040424050408B
:1053C00059404B40594000E0FFB5154F4C00640D6B
:1053D00003D0BC4204D10C0314D80020090D0905E8
:1053E0005C00640D03D0BC4204D11C030AD8002227
:1053F0001B0D1B0501264B4009D44B4003D58B42A6
:1054000000D18242FFBD9942FCD19042FFBD0B43C7
:10541000DB1803431343F5D0C9434918FFBD00000F
:10542000FF07000000B5FFF7CFFF01D0002000BD4F
:10543000012000BD00B5FFF7C7FF804100BDC04699
:1054400000B5FFF7C1FF01D9002000BD012000BD5C
:1054500000B5FFF7B1FF01D9002000BD012000BD5C
:1054600000B5FFF7A9FF804100BD012040054A00BB
:10547000121804D85A00121801D8002070470120D1
:10548000704700000021002805D17047C11748402F
:10549000401AFAD0C90713B5064B1B6898470CBCD5
:1054A000441CA2401005120B0349091B09051943AE
:1054B000114310BD344D00201F04000010B54C00F6
:1054C000620D8023D218DB00D21A5B057E2A10DD24
:1054D0009E3A13DACC170903490819435242D140C6
:1054E000640001341532202A05DAD04008436043B5
:1054F00010BD002010BD0846604310BDC80FC01885
:10550000013810BD18B4044B5B6AFC46019308BD1A
:1055100024DFCD6400100000E03C002018B4044BF0
:105520005B6EFC46019308BD64DFD165001000008E
:10553000E03C0020C94211D300B5490049080022CF
:1055400000F018F8002904D4002240428A41114694
:1055500000BD80210906002000BD000018B4044BE6
:10556000DB6EFC46019308BD6CDFDB6400100000BD
:10557000E03C002018B4044B9B6FFC46019308BD2F
:1055800078DFF76400100000E03C002018B4044B02
:10559000DB6FFC46019308BD7CDF656500100000F1
:1055A000E03C002018B4044BDB6CFC46019308BDC2
:1055B0004CDF116700100000E03C002018B4044BE1
:1055C0001B6DFC46019308BD50DFAD670010000065
:1055D000E03C0020132370B51D78012D19D014DD97
:1055E0001F48FFF705FB06001E48FFF701FB1E4C96
:1055F00080223100200001F02FFB022D2DD01B480E
:10560000FFF7EEFA1A4B186070BD1A4B164CA364E4
:10561000F5E7184B144C23606360A360E3602361DB
:105620006361A361E36123626362A362E362236354
:105630006363A363E36323646364A364E364236534
:105640006365A365E36523666366A366E366236714
:105650006367A367E367A364D1E7064BA364CEE760
:105660005344000053460000E03C00204C3300004F
:10567000344D002029600010F0B54646D6464F460E
:105680001D00984BC0B598464E00760D140088B0AA
:10569000B044002E52D0944B9E424FD00022934FE4
:1056A000BF1B3B0580185941FFF788FF904A914B7B
:1056B000FFF757FE0022904B00900191FFF7D0FEBC
:1056C00000280AD0009801998C4B0022FFF737FE82
:1056D0008B4B009001919846B0444346002B22D05A
:1056E000002220002900874BFFF7B2FE00280DD1D1
:1056F000002220002900844BFFF7A2FE00283FD0A3
:1057000043460024002B05DB002504E0434600242B
:10571000002BF9DB7D4D2000290008B0E0BCBA4623
:10572000B146A846F0BD2200009801992B00FFF772
:1057300036FE00F087FA04000D00ECE7FFF73EFFAD
:105740006B4A6C4BFFF70DFE00226B4B00900191F2
:10575000FFF786FE0028C3D0009801990022674B0E
:10576000FFF7EDFD664B0090019198460022200066
:105770002900644BB044FFF76BFE0028B8D0C5E7A2
:105780002000290000F010FA0B00020006000F00B4
:1057900020002900FFF7D3FD1A220490059100F0A4
:1057A000DDF900F001FA03000C00029303944B00B2
:1057B0005B0D0DD04C4A93420AD000221A2B00DC1C
:1057C00087E002980399524B12184B4102920393BF
:1057D00039003000FFF772FE82464046FFF756FE62
:1057E000029A039B06000F00FFF7D9FD04000D008D
:1057F00000F0DAF902000B00069007912000290062
:10580000FFF79DFD029A039B04000D000498059983
:10581000FFF795FD32003B00FFF7C1FD22002B0092
:10582000FFF796FD060050460F00FFF72FFE009A87
:10583000019BFFF7B4FD04000D0000F0B5F90A006C
:105840000100130002910392020029002000FFF7DB
:1058500076FD32003B00FFF77BFD009A019B0400C0
:105860000D0004980599FFF79AFD2B002200FFF721
:105870006FFD00F0E7F94B005B0D04000D00060022
:105880000F009946002B00D145E7174B994500D1F1
:1058900041E7069807995246434653439A46FFF715
:1058A0000DFE824402980399FFF708FE4B465044D0
:1058B000C318002B09DD174A93420DDDEB0F134A85
:1058C000DB071A430024150025E7EB0F0024DD0752
:1058D00021E7C90FCB0779E700240505A4197D410D
:1058E00019E7C04601FCFFFFFF070000FF030000AF
:1058F000EF39FAFE422EE63F0000E03F0000F03FA5
:1059000002FCFFFF0000B0400000B0C00000F07FCC
:10591000000060FEFE070000F0B54646D6464F4642
:105920000400C0B50D001600012A56D0D70FBF18CD
:105930007F10012F47D00323D21713409B199B10D0
:105940009846012B35D0072313409B19DB1099464D
:10595000012B27D00F2313409B191B119A46012BB3
:1059600015D03300203B1F2B06D90022FFF7D4FFB0
:1059700002000B00FFF713FD0B000200FFF70FFD05
:105980005346DB0703D522002B00FFF708FD0B0071
:105990000200FFF704FD4B46DB0703D522002B0076
:1059A000FFF7FDFC0B000200FFF7F9FC4346DB07A5
:1059B00018D402000B00FFF7F2FCFF0703D522000A
:1059C0002B00FFF7ECFC02000B00FFF7E8FCF607EA
:1059D00003D522002B00FFF7E2FCE0BCBA46B1463B
:1059E000A846F0BD22002B00FFF7D9FCE1E7C04636
:1059F000F0B587B004000D00029003910492059366
:105A000000292CDA5B004E4A5B0D9B181ED4342211
:105A1000D31A1BD4180020384AD4353A8446824021
:105A2000049E059F012149429940300088430100AE
:105A30003800904302000A4308D1342B4CD0624610
:105A4000002A3FDB3B00D340DB0745D480231B0605
:105A5000EB1800940193009C019D02940395049817
:105A60000599FFF72BFD2B0D06000200002B3ED001
:105A700034498B423BD02903090B214337D1324AA9
:105A8000904256DB80221201964250DA2C4A94460C
:105A900063445E432D4BF318002B4CDD2C4A002051
:105AA00093424BDC00222B4B3105801859411CE0FE
:105AB00001222021524284461000C91AC8409A404F
:105AC0000243ADE73000010020223E00D940D21A47
:105AD00096400B003343B7E78026049A059B3606B1
