:020000041000EA
:1000000000B5324B212058609868022188439860DF
:10001000D860186158612E4B002199600221596106
:100020000121F02299502B49196001219960352056
:1000300000F044F80222904214D00621196600F024
:1000400034F8196E01211966002018661A6600F04E
:100050002CF8196E196E196E052000F02FF8012189
:100060000842F9D1002199601B49196000215960AB
:100070001A491B48016001219960EB211966A021F2
:10008000196600F012F800219960164914480160C1
:100090000121996001BC002800D000471248134993
:1000A000086003C880F30888084703B5996A0420EC
:1000B0000142FBD001200142F8D103BD02B5186610
:1000C0001866FFF7F2FF186E186E02BD00000240BE
:1000D000000000180000070000035F00212200005C
:1000E000F4000018222000A00001001008ED00E03C
:1000F00000000000000000000000000074B24E7A12
:1001000000200420F7010010C3010010315E01102F
:10011000C1010010C1010010C1010010C101001097
:10012000C1010010C1010010C1010010C701001081
:10013000C1010010C1010010C9010010CB01001065
:10014000CD010010CD010010CD010010CD01001037
:10015000CD010010CD010010CD010010CD01001027
:10016000CD010010CD010010CD010010CD01001017
:10017000CD010010CD010010CD010010CD01001007
:10018000CD010010CD010010CD010010CD010010F7
:10019000CD010010CD010010CD010010CD010010E7
:1001A000CD010010CD010010CD010010CD010010D7
:1001B000CD010010CD010010CD010010CD010010C7
:1001C00000BE00BE00BE00BE00BE00BEEFF3058054
:1001D000103800BEF2EB8871405D0210645D0210C1
:1001E0003802001090A31AE71E481F49086006C88D
:1001F00081F3088810471D480068002801D019487D
:10020000F3E70DA40ECC002902D000F012F8F9E7B4
:100210001749184A002000E001C19142FCD116495B
:100220008847164988471649884700BEFDE701C937
:1002300001C29A42FBD37047645D02104001002066
:10024000482300206C7F02100000042000000420DE
:100250006C7F021000100420001004200000000039
:10026000704700000000000008ED00E0000000D032
:1002700048230020206300203D860010E109001083
:1002800035860010F8B5C04606480749091A8B1094
:10029000C90FC91810B5491003D0044B002B00D06A
:1002A000984710BD4823002048230020000000008C
:1002B000054B10B5002B03D00449054800E000BFF2
:1002C000FFF7E2FF10BDC04600000000A062002062
:1002D00054B20110F0B5C64600B592B004F000FC6F
:1002E000494B180098461AF07FFF04F07BFA06008D
:1002F0000F00464B1E605F6018685968444B1A68CF
:100300005B68801A9941FA220023920004F02EFEC5
:1003100004000D003F4B404F1C605D6040461A6872
:100320005B683A607B601AF0E7FE3C4E300000F0FC
:1003300015FF00283BD13A4C200000F00FFF0028A9
:100340000ED0C825ED00635D002B0ED0354E300079
:1003500002F0A6F83A687B68B261F3610023635546
:10036000012012B080BCB846F0BD2E4D6846290071
:1003700002F0C0F823002900267B1033700080199A
:10038000C0001822C018083106F092FC1F22637BBF
:10039000013632409B1A22735A4253412800A373FC
:1003A00002F07EF83A687B68AA61EB61D8E71E4DDF
:1003B00006A8290001F002FD290006A801F048FD69
:1003C000290006A801F096FD40461AF00DFF3A6894
:1003D0007B684046AA62EB621AF08EFE3300347BE3
:1003E00010336000001900013022C018290006F007
:1003F0005FFC1F22737B013422409B1A32735A42E6
:100400005341B37397E7C046F46200207052002056
:1004100088540020E850002078520020D82F002077
:1004200020360020885100202851002070B5194C3A
:10043000194D1A4E635D84B031006846002B19D007
:1004400002F0E0FA002363552300257B10332801D6
:1004500010223100C01806F02BFC1F22637B0135EF
:100460002A409B1A22735A42534100200021A37351
:1004700004B070BD02F000FA300002F09FFA0123D0
:100480006355337C5901C91A8900C918C800C917B6
:10049000EEE7C046B042002041060000F0510020C7
:1004A000F0B5C64600B5924B96B0180098461AF0C3
:1004B0009BFE04F097F904000D008E4B1C605D60FC
:1004C000186859688C4B1A685B68801A9941FA223F
:1004D0000023920004F04AFD06000F00874B884D70
:1004E0001E605F6040461A685B682A606B601AF0A5
:1004F00003FE844C200000F031FE002813D02300BE
:10050000267B103370008019C000C01818227E4965
:1005100006F0CEFB1F2301363340667B2373F61AA9
:1005200073425E41A673794C200000F017FE00284C
:1005300031D0C827FF00E65D002E00D194E0744E54
:10054000300002F02FF9286869680023714AE355EA
:10055000A354B060F160367C03F09CFE040004F00C
:1005600041F9FA2200230490059192003000002105
:1005700006F02EFA049A059B12184B41002B02DA62
:100580000122654B524200210291019163492000F2
:10059000009103F083FE624C200000F0DFFD002894
:1005A00000D085E05F4C200000F0D8FD00280ED080
:1005B000C826F600A35D002B14D05B4F380002F074
:1005C000F9FD0023A3552A686B683A617B61574C9B
:1005D000200000F0C3FD00282AD1012016B080BC05
:1005E000B846F0BD504E0CA8310002F0EBFD2300E0
:1005F000277B10337800C019C00018223100C018C2
:1006000006F056FB1F22637B01373A409B1A227388
:100610005A4253413000A37302F0CCFD2A686B6844
:10062000424C32617361200000F098FD0028D4D064
:100630003F4E08A8310002F095FF2A686B68B2604F
:10064000F3602300257B103328011022C0183100ED
:1006500006F02EFB1F22637B01352A409B1A227372
:100660005A425341A373B8E7294F380002F09AF871
:10067000284BE6543E7C2A686B68BA60FB6003F046
:1006800009FE040004F0AEF8FA2200230690079158
:1006900092003000002106F09BF9069A079B121881
:1006A0004B41002B00DB6EE701221B4B52426AE7F5
:1006B000204F12A8390002F0C5FB390012A802F041
:1006C00045FC2A686B68BA60FB602300267B103308
:1006D00030011022C018390006F0EAFA1F22637BAD
:1006E000013632409B1A22735A425341A37359E791
:1006F000F46200207052002088540020E85000204E
:1007000080520020683C002090510020B042002020
:10071000F051002041060000FFFFFF7F2D04001074
:10072000F848002048230020404F00209029002056
:10073000F850002090540020F0B5DE46454657465C
:100740004E46E0B591B003F0A5FD0AAB029300233D
:100750000193944B944A0093002303F09FFF934B23
:10076000934F9B46934B944E0593944B944D069315
:10077000944B954C0793954B0893954B9846954B06
:10078000099315E0300000F0E9FC002842D1280070
:1007900000F0E4FC00286AD1200000F0DFFC002813
:1007A00000D091E0404600F0D9FC002800D0BBE02A
:1007B000380000F0D3FC0028E4D0380000F0D0FC72
:1007C0000028DFD0EFF3108A72B67B7B182299469F
:1007D0005900814B49449C46C90061447F4806F05A
:1007E00067FA4B461F22013313407B730023BB7310
:1007F0008AF3108858461AF0F7FC00F0A5FE00288E
:1008000000D1C7E058461AF077FC300000F0A6FC93
:100810000028BCD0300000F0A3FC0028B7D0EFF3D4
:10082000108A72B6737B1022994619013300103377
:10083000C918C223DB00F01806F03AFA4B461F2213
:100840000133134073730023B3738AF3108858463F
:100850001AF0CAFC00F012FF002800D19EE05846B2
:100860001AF04AFC280000F079FC002894D02800F7
:1008700000F076FC00288FD0EFF3108A72B66B7B05
:100880001022994619012B001033C918C223DB002E
:10089000E81806F00DFA4B461F22013313406B7324
:1008A0000023AB738AF3108858461AF09DFC00F0C1
:1008B00087FF00286AD058461AF01EFC200000F07E
:1008C0004DFC002800D16DE7200000F049FC002815
:1008D00000D167E7EFF3108A72B6637B182299465E
:1008E0005900230049441033C900C918C223DB0052
:1008F000E01806F0DDF94B461F2201331340637305
:100900000023A3738AF3108858461AF06DFC00F098
:10091000EFFF002836D058461AF0EEFB404600F0B4
:100920001DFC002800D143E7404600F019FC0028D8
:1009300000D13DE7EFF3108A72B643465B7BC220DD
:10094000994619014346C0001033C918102240448B
:1009500006F0AEF94B461F22013313404246537353
:10096000002393738AF3108858461AF03DFC01F077
:1009700063F8002802D1099807F0ECFF58461AF0F6
:10098000BBFB15E7089807F0E5FFC4E7079807F0F9
:10099000E1FF90E7059807F0DDFF33E7069807F0E1
:1009A000D9FF5CE7A104001080969800E462002063
:1009B000683C002058B20110B04200208CB20110F7
:1009C000F8480020C0B2011048230020E8B201100E
:1009D000902900200CB30110783C002078420020C0
:1009E000F0B5DE4657464E464546E0B5EB4CEC4882
:1009F000A54403F023FAEB4803F020FAEA4B180071
:100A00009B4603F01BFA192002F0D6FED023802269
:100A10001B0692045A6207F04FFF002808D1C82134
:100A2000032000F0A5FBFA20800003F033FDF6E779
:100A300004F0F2F8002800D06AE2DC4803F02AFD56
:100A4000DB4BDC49186816F0BFF80321102002F0D8
:100A500063FE0321112002F05FFE0022012110201D
:100A600002F074FE00220121112002F06FFED24B31
:100A7000A32019000A9304AB9C46C00001226044E5
:100A80000EF060FD041E10D015F0D6FACB4B01001D
:100A90002200180007F0E2FFC821042000F068FBE4
:100AA000FA20800003F0F6FCF6E7C922C44E0100EC
:100AB000D200300006F0F6F8C922C24DC24B1AAF80
:100AC0002100D20028007360B76006F0EBF8BF4A3F
:100AD000BF4B1000AF600892C827C92280466B60E8
:100AE0000123FF002100D200EB5506F0DBF842465F
:100AF000B84BB2A953609160B74A21009146C92210
:100B00004846D20006F0CEF84A46B44BB2A953602C
:100B100001239160D355B24A21009246C922504622
:100B2000D20006F0BFF85246AE4BB2A953609160B6
:100B3000AD4A21009046C9224046D20006F0B2F8E4
:100B40004246AA4BB2A9536001239160D355C922F2
:100B5000A74F2100D200380006F0A4F8A54B0222CE
:100B60007B60B2ABBB60A44B012118000993032347
:100B7000009301F00BF8002800D0E6E000200723E6
:100B800030700693063B0593039300230293019371
:100B90000093802303221B02049219001A00974835
:100BA00001F076FA002800D0B6E1089B2870187092
:100BB000482276235821924801F0DCFF002800D01B
:100BC0000BE24B4602221870482100238D4802F0A8
:100BD00041FA8D4B9946002800D014E25346012279
:100BE00018700023052189480192009302F010FD3E
:100BF000002800D016E23870854802F01FFB00285C
:100C000000D0C5E143460027187003F043FB14AB46
:100C10000293804B804A00930197002303F03EFD2E
:100C200003F0E0FD7D4B186059607D4816F056F8E2
:100C300039000F2003F05EFF012302930193063376
:100C4000009378480FAB0EAA0DA915F073FCB842BB
:100C500000D19AE10D9B744998464144090D0F9FBC
:100C60000E9B06310720C9B29A46089702F054FD40
:100C70000123514607220093404615F0B3FB802321
:100C80005B021093C0231B0312933B000D33FA0148
:100C90001B0313431193654B0520139303F0C8FE08
:100CA000400005F0D3FEEC21890505F0B1FE814638
:100CB00005F026FF87B2002F00D04FE13F04240249
:100CC00051463C43089A10AB4046109415F0E4FBA3
:100CD000434651461A6801238B4013434246B427CA
:100CE00013600721524807F0B9FE524B524C08934B
:100CF000524BBF009A46524B0993524B0B93300014
:100D000000F02CFA002800D0D8E0280000F026FAE5
:100D1000002800D0A8E0E359002BF0D0200098472D
:100D20000028ECD18046484807F014FE4246404671
:100D30000A990EF007FCFA210820490000F018FA81
:100D4000FA20800003F0A6FBF5E7072221000998AE
:100D500000F0C8FF002800D110E73C4B3C4A3D4959
:100D6000099801F011F93C4909983C4B3C4A01F0C3
:100D700075F97168B06800F01BFA002806D039498F
:100D8000B0680FF007FD002800DAD1E0B06800F08D
:100D90003DFA002800D0F2E6FEE7C0466CF8FFFFFF
:100DA000F462002084620020E462002088130000C6
:100DB00080170020801A0600B4C401104CB3011043
:100DC000D82F00202036002064B30110683C00209A
:100DD00070B3011084B30110B042002098B3011029
:100DE000F8480020A4B3011048230020B4B3011038
:100DF00090290020C0B30110285100208851002004
:100E0000F05100209054002028B40110F850002028
:100E1000404F0020D5020010102700008854002009
:100E20003907001074CB01100000E0AFE0000004AF
:100E300000B50110E82F00208817002024B501100C
:100E40003036002048B5011080B50110D7A3F0BEA0
:100E50000AD7A33D9A99193E8CDB88BEC286573FBC
:100E60001B0D103FD0B30110280000F079F90028C5
:100E700000D150E7EFF3108972B66B7B182219008E
:100E80009846099B51439C46C223DB00E818614405
:100E900005F00EFF43461F22013313406B730023FE
:100EA000AB7389F3108858461AF09EF900F0A8FA3F
:100EB000002862D058461AF01FF92CE7300000F0E5
:100EC0004FF9002800D120E7EFF3108972B6737B49
:100ED000302219009846089B51439C46C223DB00F0
:100EE000F018614405F0E4FE43461F22013313402D
:100EF00073730023B37389F3108858461AF074F99A
:100F000000F0AEF900283CD058461AF0F5F8FCE69F
:100F1000614807F01FFD90E56968A86800F048F98E
:100F2000002815D05D49A8680FF034FC00280FDABE
:100F30005B4807F00FFDC821062000F019F90020DA
:100F4000584B9D44F0BCBB46B246A946A046F0BDF6
:100F5000A86800F05BF9002829D1FEE7380005F009
:100F600075FD011C484605F050FD8721C90505F0B7
:100F700066FD05F0C5FDC4B2A0E60B9807F0EAFCDB
:100F800098E7504607F0E6FCBEE703F0AFFE61E6E7
:100F900043465968986800F00BF900286CD1434625
:100FA000986800F033F9002800D02BE6FEE7089B94
:100FB0005968986800F0FCF8002806D0089B3A4968
:100FC00098680FF0E7FB0028B2DB089B986800F0F8
:100FD0001DF9002800D0E8E5FEE74B4659689868FF
:100FE00000F0E6F8002806D04B46304998680FF02C
:100FF000D1FB00289CDB4B46986800F007F90028DD
:1010000000D0DEE5FEE753465968986800F0D0F856
:10101000002822D15346986800F0F8F8002800D044
:10102000DCE5FEE77968B86800F0C2F8002806D170
:10103000B86800F0EBF8002800D0DCE5FEE71C49BA
:10104000B8680FF0A7FB0028F2DA484607F082FCE8
:10105000C821062000F08CF8EAE753461549986845
:101060000FF098FB0028D5DA484607F073FCC8213A
:10107000062000F07DF8CDE743460F4998680FF051
:1010800089FB00288BDA484607F064FCC82106205B
:1010900000F06EF883E7C04634B3011038B4011095
:1010A00028B40110940700005CB4011068B401106A
:1010B000A0B401107CB40110C8B4011070B5194E71
:1010C000194D1A4C82B031681123102201950094F9
:1010D000174800F04FFD316811231022019500944C
:1010E000144800F0BFFF31681123102201950094CD
:1010F000114801F047FB316811231022019500943B
:101100000E4801F051FE06210D4802F051F83168F9
:1011100011231022019500940A4802F06BF902B0E5
:1011200070BDC0468017002084620020801A06002F
:101130002851002088510020F051002090540020B8
:10114000404F0020F850002001207047002801D1B6
:10115000014870470020FCE788170020007870479E
:10116000417B027B03000120914200D1987B7047B4
:10117000F0B5C6468046D0261920802700B50D0060
:1011800002F01AFB43463606BF0400247762002BA8
:101190000BD028007761013403F07CF9E4B2280019
:1011A000B76103F077F9A045F3D180BCB846F0BD34
:1011B00070B532220D000EF0A9FAF72304000120C9
:1011C0001C421FD0200014F037FF0F4E02002900F0
:1011D0003000D02580262300052407F03FFC2D0693
:1011E0001920B60402F0E8FA6E62C8206E61013C74
:1011F00003F050F9E4B2C820AE6103F04BF9002CC3
:10120000F3D1002070BDC046ACB5011070B50FF031
:1012100085FA04000120002C00D170BD200014F0DC
:101220000BFFD0258026220007240C4B010018005C
:1012300007F014FC2D061920B60402F0BDFA6E6208
:10124000C8206E61013C03F025F9E4B2C820AE610C
:1012500003F020F9002CF3D10020DEE7C8B501101F
:10126000F0B5C64600B55D4C32226668A068310014
:1012700092B00EF04BFAF7230500184222D014F07A
:10128000DBFE2B003100564CD025802602002000CA
:10129000052407F0E3FB2D061920B60402F08CFAB2
:1012A0006E62C8206E61013C03F0F4F8E4B2C8201D
:1012B000AE6103F0EFF8002CF3D1002012B080BC37
:1012C000B846F0BDC223DB00E05805F01FFCA36860
:1012D00006009846C723DB00E3181A685B68109283
:1012E0001193C623DB00E0580F0005F00FFC0E90B1
:1012F0000F913C4B3C4DE05805F008FCC5230C9089
:101300000D91DB00E05805F001FC0A900B91374B82
:10131000E05805F0FBFBC42308900991DB00E0587E
:1013200005F0F4FB06900791314BE05805F0EEFB19
:10133000C32304900591DB00E05805F0E7FB029021
:1013400003912C4BE05805F0E1FB32000090019135
:101350003B00290040460FF01DFA002825DBA0685D
:101360000FF0DCF904000120002CA7D0200014F0BD
:1013700063FED0258026220007241F4B01001800A1
:1013800007F06CFB2D061920B60402F015FA6E6208
:10139000C8206E61013C03F07DF8E4B2C820AE6164
:1013A00003F078F8002CF3D187E7D02580260624B7
:1013B000124807F0CFFA2D061920B60402F0FCF906
:1013C0006E62C8206E61013C03F064F8E4B2C8208C
:1013D000AE6103F05FF8002CF3D16EE7D82F002048
:1013E000ACB501102C060000ECB50110240600007D
:1013F0001C06000014060000C8B5011028B4011036
:10140000F0B5C64600B54A4C32226668A068310085
:1014100086B00EF07BF9F7230500184222D014F0B5
:101420000BFE2B003100434CD0258026020020000B
:10143000052407F013FB2D061920B60402F0BCF9B1
:101440006E62C8206E61013C03F024F8E4B2C8204B
:10145000AE6103F01FF8002CF3D1002006B080BC71
:10146000B846F0BDC223DB00E05805F04FFBA3688F
:1014700006009846C423DB00E3181A685B680492F0
:101480000593C323DB00E0580F0005F03FFB0290FB
:101490000391294B294DE05805F038FB32000090AC
:1014A00001913B00290040460FF074F9002825DB2C
:1014B000A0680FF033F904000120002CCED02000EA
:1014C00014F0BAFDD0258026220007241C4B010011
:1014D000180007F0C3FA2D061920B60402F06CF9C3
:1014E0006E62C8206E61013C02F0D4FFE4B2C820F5
:1014F000AE6102F0CFFF002CF3D1AEE7D0258026FD
:101500000624104807F026FA2D061920B60402F02A
:1015100053F96E62C8206E61013C02F0BBFFE4B279
:10152000C820AE6102F0B6FF002CF3D195E7C046AB
:1015300020360020ACB501101406000020B60110C2
:10154000C8B5011028B40110F0B5C64600B5454C29
:1015500032226668A068310082B00EF0D7F8F72317
:101560000500184222D014F067FD2B0031003E4CDC
:10157000D025802602002000052407F06FFA2D06F2
:101580001920B60402F018F96E62C8206E61013CA1
:1015900002F080FFE4B2C820AE6102F07BFF002CB5
:1015A000F3D1002002B080BCB846F0BD2F4BE0580C
:1015B00005F0ACFAA368FA229846C423DB00E318CE
:1015C00006000F00186859689200002303F0CEFC53
:1015D000274D0090019132003B00290040460FF05A
:1015E000D9F8002825DBA0680FF098F80400012046
:1015F000002CD7D0200014F01FFDD025802622001B
:1016000007241C4B0100180007F028FA2D061920AA
:10161000B60402F0D1F86E62C8206E61013C02F09F
:1016200039FFE4B2C820AE6102F034FF002CF3D1E0
:10163000B7E7D025802606240F4807F08BF92D0642
:101640001920B60402F0B8F86E62C8206E61013C41
:1016500002F020FFE4B2C820AE6102F01BFF002CB4
:10166000F3D19EE7683C0020ACB501101C060000D9
:1016700014B60110C8B5011028B40110F0B5C64663
:1016800000B5494C32226668A068310084B00EF083
:101690003DF8F7230500184222D014F0CDFC2B00B2
:1016A0003100424CD025802602002000052407F09E
:1016B000D5F92D061920B60402F07EF86E62C82016
:1016C0006E61013C02F0E6FEE4B2C820AE6102F0B9
:1016D000E1FE002CF3D1002004B080BCB846F0BD80
:1016E000C223DB00E05805F011FAA368FA229846FD
:1016F000C323DB00E318920006000F001868596846
:10170000002303F04BFC02900391294B294DE05834
:1017100005F0FCF93200009001913B0029004046A1
:101720000FF038F8002825DBA0680EF0F7FF040062
:101730000120002CD0D0200014F07EFCD025802683
:10174000220007241C4B0100180007F087F92D0622
:101750001920B60402F030F86E62C8206E61013CB8
:1017600002F098FEE4B2C820AE6102F093FE002CB5
:10177000F3D1B0E7D02580260624104807F0EAF818
:101780002D061920B60402F017F86E62C8206E61AB
:10179000013C02F07FFEE4B2C820AE6102F07AFEA6
:1017A000002CF3D197E7C046B0420020ACB5011041
:1017B0001406000038B60110C8B5011028B4011095
:1017C000F0B5C64600B5444C32226668A0683100C8
:1017D00082B00DF09BFFF7230500184222D014F0D1
:1017E0002BFC2B0031003D4CD02580260200200030
:1017F000052407F033F92D061920B60401F0DCFFAB
:101800006E62C8206E61013C02F044FEE4B2C82062
:10181000AE6102F03FFE002CF3D1002002B080BC8C
:10182000B846F0BD2E4BFA22E35892009846C223E8
:10183000DB00E758E3189868D968002303F096FBAB
:10184000A668284D0090019143463A0029003000D7
:101850000EF0A0FF002825DBA0680EF05FFF04005B
:101860000120002CDAD0200014F0E6FBD0258026E1
:10187000220007241C4B0100180007F0EFF82D068A
:101880001920B60401F098FF6E62C8206E61013C19
:1018900002F000FEE4B2C820AE6102F0FBFD002CB5
:1018A000F3D1BAE7D02580260624104807F052F875
:1018B0002D061920B60401F07FFF6E62C8206E610C
:1018C000013C02F0E7FDE4B2C820AE6102F0E2FDA7
:1018D000002CF3D1A1E7C046F8480020ACB50110B8
:1018E0001406000048B60110C8B5011028B4011054
:1018F000F0B5C64600B54A4C32226668A068310091
:1019000086B00DF003FFF7230500184222D014F033
:1019100093FB2B003100434CD02580260200200091
:10192000052407F09BF82D061920B60401F044FFAA
:101930006E62C8206E61013C02F0ACFDE4B2C820CA
:10194000AE6102F0A7FD002CF3D1002006B080BCF0
:10195000B846F0BD344BE05805F0D8F8A368FA2239
:101960009846C423DB00E318920006000F001868B5
:101970005968002303F0FAFA04900591237E2B4D59
:101980000293C223DB00E05805F0C0F8320000905B
:1019900001913B00290040460EF0FCFE002825DBAB
:1019A000A0680EF0BBFE04000120002CCED0200069
:1019B00014F042FBD0258026220007241C4B010096
:1019C000180007F04BF82D061920B60401F0F4FEBC
:1019D0006E62C8206E61013C02F05CFDE4B2C8207A
:1019E000AE6102F057FD002CF3D1AEE7D025802682
:1019F0000624104806F0AEFF2D061920B60401F0AB
:101A0000DBFE6E62C8206E61013C02F043FDE4B271
:101A1000C820AE6102F03EFD002CF3D195E7C04630
:101A200048230020ACB501101406000058B6011080
:101A3000C8B5011028B40110F0B5C64600B5464C33
:101A400032226668A068310084B00DF05FFEF72393
:101A50000500184222D014F0EFFA2B0031003F4C61
:101A6000D025802602002000052406F0F7FF2D0671
:101A70001920B60401F0A0FE6E62C8206E61013C20
:101A800002F008FDE4B2C820AE6102F003FD002CB4
:101A9000F3D1002004B080BCB846F0BDC223FA22C6
:101AA000DB00E35A920098462D4BA668E75A0633AE
:101AB000E31818685968002303F058FA029003915C
:101AC000284B294DE35A3A00009329004346300041
:101AD0000EF060FE002825DBA0680EF01FFE04005B
:101AE0000120002CD6D0200014F0A6FAD0258026A4
:101AF000220007241D4B0100180006F0AFFF2D0641
:101B00001920B60401F058FE6E62C8206E61013CD7
:101B100002F0C0FCE4B2C820AE6102F0BBFC002CB5
:101B2000F3D1B6E7D02580260624114806F012FF2F
:101B30002D061920B60401F03FFE6E62C8206E61CA
:101B4000013C02F0A7FCE4B2C820AE6102F0A2FCA6
:101B5000002CF3D19DE7C04690290020ACB50110C0
:101B6000120600001406000070B60110C8B501107E
:101B700028B401108363009B0163C363019B42632C
:101B80000364002343648364C3647047F0B5D6469E
:101B90004F464646C0B584B01F000CAB1B7890463C
:101BA0009A466A460F23D3720B22050000260E3B8D
:101BB000006B6A44009303AC89466B2115F02CF846
:101BC0000123286B22006B21009615F02FF8237853
:101BD000682B09D03A4806F0BDFE002004B0E0BCF6
:101BE000BA46B146A846F0BD102323704B467F018C
:101BF000DB001F43220002236B21286B67700096D5
:101C000015F00AF82023424623705346D2005B01A8
:101C100013436370220002236B21286B009614F09B
:101C2000FBFF284B220023806B210223286B0096A8
:101C300014F0F2FF244B220023806B210223286B37
:101C4000009614F0E9FF2123220023806B21286BEA
:101C50001F3B009614F0E0FF1C4B220023806B21F9
:101C60000223286B009614F0D7FF194B2200238023
:101C70006B210223286B009614F0CEFF2E23220046
:101C800023806B21286B2C3B009614F0C5FF114B71
:101C9000220023806B210223286B009614F0BCFFE6
:101CA0004B460D4A9B009B580C4A6B6443469B0075
:101CB0009B580B48AB6406F04DFE01208EE7C046F2
:101CC00084B601101E3800001F38000022040000F6
:101CD000230200002EC0FFFFB8CB0110A8CB0110DB
:101CE000B8B60110F0B5C64600B584B00F23160093
:101CF0006A46D3720B22050000270E3B006B6A4434
:101D0000009303AC88461E2114F086FF0123286B44
:101D100022001E21009714F089FF23783D2B07D065
:101D2000224806F017FE002004B080BCB846F0BD83
:101D3000202323704023B6001E43220002231E21CD
:101D4000286B6670009714F067FF212323704346C9
:101D50005B016370220002231E21286B009714F0A0
:101D60005BFF2223220023801E21286B203B00974B
:101D700014F052FF0E4B220023801E210223286BF9
:101D8000009714F049FF2423220023801E21286B92
:101D9000223B009714F040FF4246064B9700FB5849
:101DA0000548EB6406F0D6FD0120BDE7E8B601105A
:101DB0002308000098CB01101CB70110F0B5CE46E7
:101DC000474680B587B06A46A8230500086C0C001A
:101DD000D37319F009FA01230F22206B6A44009390
:101DE0006B2114F019FF002304AE32006B21206B2D
:101DF0000093063314F01AFF206C19F07DF90222CB
:101E0000B35EA76C99460422B35E98460023F05E49
:101E100004F022FE391C04F012FE2060484604F053
:101E20001BFE391C04F00BFE6060404604F014FEFB
:101E3000391C04F004FE3022A0602100280004F0C8
:101E400037FF280007B0C0BCB946B046F0BDC04659
:101E5000F0B5CE46474680B587B06A469823050060
:101E6000086C0C00D37319F0BFF901230F22206B0B
:101E70006A4400936B2114F0CFFE002304AE3200BD
:101E80006B21206B0093063314F0D0FE206C19F008
:101E900033F90222B35E676C99460422B35E98461A
:101EA0000023F05E04F0D8FD391C04F0C8FD216D5C
:101EB00004F0ABFDE060484604F0CEFD391C04F0B0
:101EC000BEFD616D04F0A1FD2061404604F0C4FD3B
:101ED000391C04F0B4FDA16D04F097FD302260615F
:101EE0002100280004F0E4FE280007B0C0BCB94679
:101EF000B046F0BDF0B5CE46474680B587B06A46DD
:101F0000A8230500086C0C00D37319F06DF90123A8
:101F10000F22206B6A4400931E2114F07DFE0023E3
:101F200004AE32001E21206B0093063314F07EFEB7
:101F3000206C19F0E1F80222B35EE76C99460422A6
:101F4000B35E98460023F05E04F086FD391C04F071
:101F500076FDA061484604F07FFD391C04F06FFD5A
:101F6000E061404604F078FD391C04F068FD302241
:101F700020622100280004F09BFE280007B0C0BCAE
:101F8000B946B046F0BDC046F0B5CE46474605005E
:101F900080B5EE6C85B0081C311C171C1C1C04F0AD
:101FA0003AFD04F07BFD311C03B2381C994604F065
:101FB00032FD04F073FD311C03B2201C984604F07E
:101FC0002AFD04F06BFD052303AC002623704B466D
:101FD0002200637007B20223286B1E21009614F0C2
:101FE0001BFE062323704B461B1263702200286BD6
:101FF00002231E21009614F00FFE07232370434690
:1020000022006370286B02231E21009614F004FE48
:102010000823237043461B1263702200286B02239F
:102020001E21009614F0F8FD09236770237022002A
:10203000286B1E210096073B14F0EEFD0A233F1289
:102040002370286B677022001E210096083B14F055
:10205000E3FD05B0C0BCB946B046F0BD01654265C0
:102060008365704730B50024426202008362039B9F
:102070000460C362049B01620363044B483232CBA9
:1020800032C232CB32C212CB12C230BDC8CB011029
:10209000F0B54E464546DE465746E0B58BB0079351
:1020A00014AB1B780125049315AB1B780692994657
:1020B00016AB1B786A469B4617AB1B78060002934B
:1020C00018AB1B780C00059319AB1B78006A9A4675
:1020D0001AAB1B780C2198465023138400954E3B75
:1020E00008AA14F099FD022812D00021DA4806F05F
:1020F000B5FC0021D94806F0B1FCD94806F02AFC0D
:1021000000200BB0F0BCBB46B246A946A046F0BDCD
:10211000002309AF306A3A0000930C21033314F016
:1021200085FD032800D08EE10F2106AB5A7B9B7BF7
:102130001B0213435BBA19400C29DBD1C94B306A2F
:1021400009933A0004230C21009514F065FD04283E
:1021500000D15CE10121C44806F080FC029B059A95
:102160009B001343049A306A520113434A46D2013A
:1021700013435A46520213435246D202134360227B
:10218000BB703A709AB20823120AFB70073B7A7050
:102190000C2100933A00033314F03EFD042800D1D3
:1021A00026E10221B04806F059FC60233B70230A67
:1021B0007B701023FB700F3B306ABC703A000093B9
:1021C0000C21033314F028FD042800D101E104217F
:1021D000A54806F043FC6023069A3B70130A7B7007
:1021E0001423FB70133BBA70306A3A0000930C2141
:1021F000033314F011FD042800D1DBE005219A48D7
:1022000006F02CFC6023079A3B70130A7B7018239E
:10221000FB70173BBA70306A3A0000930C2103330D
:1022200014F0FAFC042800D1B5E006218E4806F02F
:1022300015FC059803F056F90B0080210200C90532
:10224000002003F089FD040002980D0003F04AF914
:102250000B0080210200C905002003F07DFD002253
:1022600002900391814B2000290003F0C4F88023E1
:1022700004000D00029803990022DB0503F094F896
:1022800002000B002000290003F0B5F80022784B73
:1022900003F08AF80022774B03F0ADF80022764B6A
:1022A00003F082F8754A764B03F0A5F803F056F96F
:1022B0003080504603F016F90B0080210200C9055A
:1022C000002003F049FD00226E4B03F094F8002239
:1022D000674B03F069F8694A694B03F08CF803F027
:1022E0003DF94023049A7080F2544A460133F25477
:1022F0005A460133F25442463B3B134012339B0093
:102300009B596A467364604B306AB36373635F4B77
:102310000C21F363502313844F3B009308AA01332D
:1023200014F07AFC022823D000214B4806F096FBDB
:1023300000234246110170220A401A431B0A602101
:102340007B70002401233970BA70306AFC703A0047
:1023500000935439033314F05FFC042866D0002145
:10236000414806F07BFB4A4806F0F4FA0120C8E633
:102370000023306A3A0000930C21033314F056FC1A
:10238000032864D106AB5A7B9B7B1B021343414A53
:102390005BBA1340CDE70023306A0C21009308AAF2
:1023A000013314F043FC012800D142E73A4806F01B
:1023B00055FB3EE70023306A0C21009308AA013345
:1023C00014F034FC012800D11CE7334806F046FB2A
:1023D00018E70023306A0C21009308AA013314F097
:1023E00025FC012800D1F6E62B4806F037FBF2E683
:1023F0000023306A0C21009308AA013314F016FC64
:10240000012800D1D1E6244806F028FBCDE60023C0
:10241000306A0C21009308AA013314F007FC01284C
:1024200000D19BE61C4806F019FB97E6306A0123B1
:102430000C21009408AA14F0F9FB012893D0164847
:1024400006F00CFB8FE7154806F008FB51E6134831
:1024500006F004FB6CE7C04648B70110BCB701109A
:1024600000B801106060000438B80110000050404E
:1024700000C050400000084000C08540CDCCCCCC0E
:10248000CCCCF43F000068409A99193ED9CE773EF3
:10249000B4B801108FFF000084B8011094B7011088
:1024A00030B585B03F236A460400006B137218F004
:1024B0009BFE01230C21206A02AA009314F0ACFBBE
:1024C000002303AD2A000C21206A0093013314F08D
:1024D000ADFB206B18F010FE2B780120DB0601D439
:1024E00005B030BD024806F035FA0020F8E7C046D6
:1024F000E4B80110F0B5DE4645464E465746E0B515
:1025000089B04F236A468046086B0C00137418F09C
:102510006BFE01230C21206A04AA0093994614F053
:102520007BFB002305AD2A000C21206A00930933B0
:1025300014F07CFB206B18F0DFFD2B78DB0600D558
:10254000D1E002AA94460D2363441A785D780F23E4
:102550002D02634415431A785B786DBA1B0213434E
:1025600011226244577811783F020F437FBABAB202
:102570009346132262445678117836020E4376BA97
:10258000B2B202924022A25C5BBA9246ADB298B25D
:10259000022A00D1DBE065D818B204F05DFA616B65
:1025A00004F04DFA616C04F04AFA52464B469340EF
:1025B0000390180004F050FA011C039804F03FFA4D
:1025C000A0604123E35C9946022B63D0022B00D923
:1025D000A7E038B204F040FAA16B04F030FA616C65
:1025E00004F02DFA4B46071C0120984004F034FA01
:1025F000011C381C04F023FAE0604223E75C022F40
:102600005ED0022F00D977E030B204F025FAE16BFA
:1026100004F015FA616C04F012FA061C0120B840AF
:1026200004F01AFA011C301C04F009FA2061280099
:1026300004F012FA4F4904F0E8F94F4904F0EBF9BD
:102640004E4904F0E5F92100606118224046083146
:1026500004F02EFB404609B0F0BCBB46B246A9468A
:10266000A046F0BD032AACD104F0F6F98D21C905CE
:1026700004F0CBF9616B04F0E2F9616C04F0DFF96E
:102680008221C90504F0DBF94123A060E35C99468F
:10269000022B9BD1584604F0DFF98E21C90504F0C6
:1026A000B4F9A16B04F0CBF9616C04F0C8F9812195
:1026B000C90504F0C4F94223E060E75C022FA0D111
:1026C000029804F0C9F98E21C90504F09EF9E16B66
:1026D00004F0B5F9616C04F0B2F98121C90504F088
:1026E000AEF92061A3E7264806F034F9182200214C
:1026F000404604F0D7FAADE7032F98D1029804F0D2
:10270000ABF98D21C90504F080F9E16B04F097F96C
:10271000616C04F094F98221C90504F090F92061FC
:1027200085E7032B00D068E7584604F095F98D2122
:10273000C90504F06AF9A16B04F081F9616C04F039
:102740007EF98221C90504F07AF9E06055E704F0CA
:1027500083F98E21C90504F058F9616B04F06FF913
:10276000616C04F06CF98121C90504F068F9A0607E
:1027700027E7C04600A43447CDCC34420000C8410E
:1027800028B9011010B5064C436704610024029B70
:1027900084668367039BC1660267C36710BDC0463A
:1027A0000050400030B585B0437C040003ADC06FDD
:1027B0002B7018F019FD6823E15C0023E06E2A00FD
:1027C0000093013314F028FA012808D0064806F0D7
:1027D000C1F8E06F18F090FC002005B030BDE06F4C
:1027E00018F08AFC0120F8E76CB90110F0B504007C
:1027F000682700261D4B85B01B78C06F02AD2B707B
:1028000018F0F2FCE15DE06E01232A00009614F05E
:1028100003FA012808D0164806F09CF8E06F18F07B
:102820006BFC002005B0F0BDE06F18F065FC03AD57
:10283000E06F18F0D9FCE15DE06E03232A000096FA
:1028400014F0F4F9032806D00A4806F007F9E06FFF
:1028500018F052FCE5E7E06F18F04EFC28786B7832
:1028600000041B021843AB781843DBE7B4C4011023
:10287000C0B9011010BA0110F0B5DE4657464E46F9
:102880004546E0B50C0083B082460800FFF7AEFF76
:10289000A38BA0621B02C61AF71732003B0000216F
:1028A000E08BE66204F094F8FA23DB0098464902D4
:1028B000C50D0D43A844434623632B006B43994643
:1028C000FA233200DB0098454ADA3B003000390039
:1028D00004F07EF84E10CF1732003B0092197B4176
:1028E00092197B4163654B465B004B445810D917E6
:1028F0004B469B004B44DE10DF172C4B9446A065E3
:10290000E165266667662265984512DA284B994686
:102910004D446D43EB005B1B1A00DB1712184B4153
:10292000AD00A265E3652A00EB1792197B41226690
:10293000636662464346981A206304F08DF81D4989
:1029400004F069F8102220602100504604F0B0F92C
:10295000504603B0F0BCBB46B246A946A046F0BD07
:102960003B003000390004F033F800900191009DE5
:10297000019E6B0FF1001943E800401BB14102F0CA
:10298000F9FD00220C4B02F036FD02F0FFFD4B4634
:102990001B11A3654B46DB170022E3650023844629
:1029A0002266636620656165C3E7C04624FAFFFFBF
:1029B000AC0D00000000C8420000A03D30B585B05D
:1029C000837C040003ADC06F2B7018F00DFC6823EE
:1029D000E15C0023E06E2A000093013314F01CF93F
:1029E000012808D0064805F0B5FFE06F18F084FB19
:1029F000002005B030BDE06F18F07EFB0120F8E745
:102A00004CBA0110F0B5DE4657464E46454688465C
:102A1000E0B5814685B00800FFF7E8FE43465862FE
:102A2000DB6A42469B468246DB17108B00215A46E2
:102A3000019303F0CDFF0C060B1241460025898A55
:102A4000020A2243CC0312196B41414602920393BE
:102A5000019B488B5A46002103F0BAFF4C06CB116C
:102A600041460025C98AC20922430C04A4185D41CD
:102A70000298039943469A6DDB6DA41A9D41434623
:102A80009C63DD631A6E5B6E801A994102000B0035
:102A9000414650460A644B64002103F099FF00232D
:102AA00006000F00C917C902CA0AB6185F41F90229
:102AB000720D0A437B15121BAB410025D91749043F
:102AC0004C0CA4185D416B04E00B1843434698641A
:102AD00003F0C2FF084903F09EFF434610225860EE
:102AE0004146484604F0E4F8484605B0F0BCBB4611
:102AF000B246A946A046F0BD000020415039C9B2F7
:102B000010B500230024082904D81848890041582A
:102B10008F460223403AD2B2082A04D814499200C0
:102B20008A5897460224181CA34201DBC0B210BD8C
:102B3000201CFBE70A24181CA342F7DAF8E703235A
:102B4000E8E70623E6E70A23E4E70324181CA34288
:102B5000ECDAEDE70624181CA342E7DAE8E70123E4
:102B6000D8E70124181CA342E0DAE1E7E8CB011022
:102B70000CCC0110F0B54E464546DE465746E0B552
:102B80008DB005000391080019006823E95408ABD3
:102B90009946AA7416004A467D4B68741B78E86E05
:102BA000137000230093013314F036F801280AD083
:102BB000784805F0CFFE00200DB0F0BCBB46B24611
:102BC000A946A046F0BD0A2001F064FC902304AAA7
:102BD00094465B4263449A46682398466E4BA02411
:102BE00004936E4B06AF9B460596434600263C7009
:102BF000E95CE86E01233A00009614F00DF8012814
:102C000000D1ACE02100584605F028FF00235246D1
:102C100013530234B02CE8D14B460F22DB89C0207D
:102C20001A409446FF2293434A46D3810022A84685
:102C30000021FF271500059EAF3C80012DE03A40A2
:102C40006A4013B2002B34DB520093B212B2002A56
:102C500035DB5A0093B212B2002A36DB5B009AB21F
:102C60001BB2002B37DB520093B212B2002A38DBC2
:102C70005B009AB21BB2002B39DB520093B212B246
:102C8000002A3ADB5B009AB21BB2002B3BDB01311E
:102C90005200C9B295B210293CD0EA464B085B00FD
:102CA00053441A8C0C42CAD1120A6A4013B2002B48
:102CB000CADA5B0043401AB293B2002AC9DA520062
:102CC000424012B293B2002AC8DA5200424013B214
:102CD0009AB2002BC7DA5B0043401AB293B2002AC3
:102CE000C6DA5200424013B29AB2002BC5DA5B003A
:102CF00043401AB293B2002AC4DA5200424013B2DF
:102D00009AB2002BC3DA5B0001314340C9B29DB2D5
:102D10001029C2D12A004546120B624533D14B46D9
:102D20005B886246AB824B469B880399EB824B469D
:102D3000DB8828002B834B461B896B834B465B89C2
:102D4000AB834B469B89EB832023EA543200FFF789
:102D5000D5FE2874124805F0FDFD01202CE74346FE
:102D6000E86EE95C07AA0223009613F05FFF0228D1
:102D700004D16B469B8B5BBA9BB248E72100049859
:102D800005F06CFE42E7074805F0E4FD13E7C04696
:102D90000CBC011074BB011028BB0110D8BA011083
:102DA000E0BB0110ACBB011010B5C361029B002455
:102DB0000362039B04744362FE239B0541618261AD
:102DC0008362848510BDC04630B50F2587B00400EE
:102DD0006D44406A297018F007FA0123217C60696C
:102DE0002A00009313F018FF012809D0297813480E
:102DF00005F034FE606A18F07FF9002007B030BD9E
:102E0000606A18F079F9606A18F0EEF90023217C05
:102E1000606905AA0093023313F008FF022807D067
:102E20002978074805F01AFE606A18F065F9E4E7AA
:102E3000606A18F061F96B46988ADFE710BC0110F0
:102E400044BC0110F0B5CE464746884680B5042103
:102E500083B081464046FFF7B7FF03F0FDFD4346D0
:102E6000996A03F0ECFD03F04BFE43461860FA2329
:102E70009B0098420AD810224146484603F018FFAA
:102E8000484603B0C0BCB946B046F0BD02F026FBD0
:102E90000022244B04000D0002F05EFF0022060019
:102EA0000F00214B2000290002F056FF1F4A00901E
:102EB00001911F4B3000390002F09DFA1D4A0600B7
:102EC0000F00009801991C4B02F095FA02000B00CC
:102ED0003000390002F05FFA220006000F002B00DC
:102EE0002000290002F087FA144A154B02F083FAF9
:102EF00002000B003000390002F056FA114A0600B9
:102F00000F00114B2000290002F075FA0B0002009F
:102F10003900300002F048FA02F020FB4346186006
:102F2000A9E7C04600001040000008403B288FB1D0
:102F30007A28653D6EF41EC9862B443EB0CA182E11
:102F4000915C153F287E8CB96B09F03FF0B5CE46F9
:102F50004746884680B5052183B081464046FFF745
:102F600033FF03F079FD4346996A03F068FD03F0EF
:102F7000C7FD43465860FA239B0098420AD81022A6
:102F80004146484603F094FE484603B0C0BCB946EB
:102F9000B046F0BD02F0A2FA0022244B04000D005E
:102FA00002F0DAFE002206000F00214B200029006B
:102FB00002F0D2FE1F4A009001911F4B30003900F1
:102FC00002F019FA1D4A06000F00009801991C4BE7
:102FD00002F011FA02000B003000390002F0DBF9B8
:102FE000220006000F002B002000290002F003FA47
:102FF000144A154B02F0FFF902000B0030003900B3
:1030000002F0D2F9114A06000F00114B20002900EE
:1030100002F0F1F90B0002003900300002F0C4F9AF
:1030200002F09CFA43465860A9E7C04600001040F1
:10303000000008403B288FB17A28653D6EF41EC918
:10304000862B443EB0CA182E915C153F287E8CB961
:103050006B09F03FF0B5040087B016001D00002793
:103060000174102900D176E0482900D171E00721D0
:103070002000FFF7A9FE010A8AB2C9B28F4200D030
:103080006BE0C1B281295ED100212000FFF79CFED8
:103090003D4B03AA184000235070000A1370907033
:1030A000217C60690093033313F0B6FD032865D1DA
:1030B00000212000FFF788FE344B04AA1840F302D9
:1030C0001843002380B25070000A13709070217C66
:1030D00060690093033313F09FFD032849D12C232B
:1030E0000021E6542000FFF76FFE294B05AA184087
:1030F000AB01184300235070000A13709070217CBC
:1031000060690093033313F087FD03282CD12D232E
:10311000E5540C2D26D81F4BAD001F49E85803F08D
:103120008EFC2C23E35C032B04D81C4A9B0099588B
:1031300003F085FCA0620A2001F0ACF9184805F004
:1031400009FC012003E0174805F088FC002007B0C7
:10315000F0BDD4278BE7C42789E73900124805F072
:103160007DFCF3E70C48DCE70021104805F076FC15
:10317000CDE700210D4805F071FCB0E700210B48B8
:1031800005F06CFC94E7C046FEFF0000FFE700007E
:103190003FFC000040CC011027A0893B30CC01103F
:1031A00014BD0110B8BC011070BC011010BC01109E
:1031B000816170470721036AC26904339B009950FB
:1031C0007047C0460A6AF8B5CB699200CE464746BA
:1031D0009B18072280B51A611F6A1B6A3A14984629
:1031E000FF233C0E13400600200218430D009146B9
:1031F00003F032FC104903F00EFC68603804000C48
:1032000003F02AFCE4190C4903F005FC4C443B1282
:10321000E4184346E4B2DFB2E41B63425C41286039
:10322000290030002C72182203F042FD3000C0BC8F
:10323000B946B046F8BDC04600002041F0B5D646BC
:1032400046464F4601250400030002000100C0B5B8
:103250008EB002950195AA46A5695C4824332032B8
:103260001C31009513F066F9061E00D1A0E0236A18
:10327000E7699846636AA5699946554B2800F9188D
:10328000090D0631C9B200F047FA53462A004146FB
:1032900000933800012313F0A5F880235B020A9302
:1032A0004B464A461E33D2011B031343F8220B93AD
:1032B00092006B011340F822ED03120315408022A7
:1032C0002B43D20413430D93902305201B030C932F
:1032D00001F0AEFB02F002F93E4A3F4B02F08BF8E0
:1032E00002F080F9EC21890503F092FB824603F09D
:1032F00007FC85B20020002D4AD12D044A464146E4
:1033000005430AAB38000A9513F0C6F8414601237D
:103310008B403A68210013433B60236A04A85A009B
:10332000D218E369D2009B182C4A94468022634449
:1033300012061A601A60FFF745FFFA20C00001F07C
:10334000A9F8210004A8FFF73DFF237A012B38D00C
:103350000125234F04222900380005F07FFBFA20C5
:10336000C00001F097F8210004A8FFF72BFF237A93
:10337000012B21D00135052DECD11A4805F0EAFAD0
:10338000002630000EB0E0BCBA46B146A846F0BDFB
:10339000280003F05BFB011C504603F036FB87213D
:1033A000C90503F04CFB03F0ABFBC0B20002A4E77D
:1033B0000D4805F053FBE3E729000C4805F04EFBF0
:1033C000DFE70B4805F0C6FADBE7C04674CC011016
:1033D0000000E0AF8DEDB5A0F7C6B03ED010000004
:1033E00094BD0110FCBD011040BD0110CCBD011009
:1033F00074BD01108361009B0161C361019B426147
:103400000362704700B5002385B0042A07D8154B26
:1034100092009B58C9019F463F230B43DBB203AA8E
:10342000022153700023117000694231009302336E
:1034300013F0F2FB022801D105B000BD02210A48B9
:1034400005F00CFBF8E730230B43DBB2E7E7CBB228
:10345000E5E703230B43DBB2E1E70C230B43DBB2CD
:10346000DDE7C046BCCC011028BE011070B584B0A9
:10347000040002AE006A0D00317017F0B5FE0123A2
:10348000206932000093442113F0C6FB236A01280F
:1034900009D0180017F030FE2900104805F0DEFAB8
:1034A000002004B070BD180017F026FE206A17F047
:1034B0009BFE002320694421009303AA013313F0EB
:1034C000B5FB012804D02900054805F0C7FAE7E755
:1034D000206A17F011FE6B46187BE2E7D0BE0110A0
:1034E0000CBF011070B584B0040002AE006A0D007C
:1034F000317017F079FE01232069320000934421D6
:1035000013F08AFB236A012809D0180017F0F4FD94
:103510002900124805F0A2FA002004B070BD18007E
:1035200017F0EAFD206A17F05FFE002320694421AE
:10353000009303AA023313F079FB236A022807D011
:10354000180017F0D9FD2900054805F087FAE3E7D0
:10355000180017F0D1FD6B469889DEE75CBE0110BC
:1035600098BE011070B50C0005000D212000FFF77A
:10357000B9FF0921A0802000FFF7B4FF0B212080B4
:103580002000FFF7AFFF102260802100280003F029
:103590008FFB280070BDC04630B58C2385B06A46CD
:1035A000DB019381002305004421006903AA0093F5
:1035B000023313F031FB02281BD101212800FFF751
:1035C00055FF022104002800FFF750FF03210443A8
:1035D0002800FFF74BFFE4B2044308212800FFF75F
:1035E00045FFE4B20443E4B20120002C06D105B04B
:1035F00030BD0021044805F031FADEE7034805F04C
:10360000A9F90020F3E7C04628BE011040BF011011
:10361000F0B54F464646D646C0B586B01D000EAB47
:103620001B780F0098460FAB1B7800210400160092
:103630009946FFF71BFF01007D280BD0334805F0AA
:103640000DFA00239A46504606B0E0BCBA46B14691
:10365000A846F0BD2000FFF79FFF82460028F0D06B
:1036600001212000FFF702FF012303AA1370063394
:103670009843002307435770206944210093023385
:1036800013F0CAFA02283CD101212000FFF7EEFE18
:10369000012304AA1370073398430023F600304334
:1036A0005070442120690093023313F0B5FA0228C8
:1036B00022D101212000FFF7D9FE012305AA1370B2
:1036C0000F33984300232D01284350704421206973
:1036D0000093023313F0A0FA022808D120004A46D2
:1036E0004146FFF78FFE0A4805F034F9ABE70121A8
:1036F000084805F0B3F9F1E70121064805F0AEF9F5
:10370000D7E70121034805F0A9F9BDE770BF011013
:10371000B0BF011028BE0110094A83009A1810B5E5
:1037200014684022544080322240064CC000A44617
:1037300063441A60044B9C466044416010BDC0461F
:1037400004C0014004D0014000400140074B80000C
:10375000C3181B68C90092000A435A400C23134047
:10376000034A9446604403607047C04604C0014069
:1037700004D00140054B8000C3181B684B40012159
:103780001940034B9C4660440160704704C00140EF
:1037900004D00140064B8000C3181B68054A09018C
:1037A00059409446302360440B4003607047C04644
:1037B00004C0014004D001400123D02283401206FE
:1037C00093629361094A83009A181168402251401C
:1037D00080320A400649C0008C4663441A60054B9B
:1037E0009C460523604443607047C04604C00140C6
:1037F00004D0014000400140094A83009A18116832
:103800004022514080320A400649C0008C46634441
:103810001A60054B9C461F23604443607047C046B6
:1038200004C0014004D00140004001408023DB057A
:103830001868000F7047C0460FB400B5084883B041
:1038400005F088F8049B002B07D005A9180001910A
:1038500004F0BCFE034805F07DF8012004F0CEFE24
:10386000D8BF0110FCB70110EFF3108072B6034A05
:103870001368002BFCD0BFF35F8F70472C0100D082
:10388000BFF35F8F0022024B1A6080F310887047ED
:103890002C0100D070B5EFF3108C72B60D4D2B6873
:1038A000002BFCD0BFF35F8F0724CB08C618C05C89
:1038B00001230C40A3401C000440034207D11843DD
:1038C0003070BFF35F8F2C608CF3108870BD1000D8
:1038D000FFF7B2FF2C0100D0F8B54746CE46884628
:1038E00080B5EFF3108C72B61C4D2C68002CFCD008
:1038F000BFF35F8F9A4222D807210126894602E052
:103900000132934218D34D4637001540AF40D408DA
:103910000119045D2742F3D110003C430C70BFF342
:103920005F8F00220D4B1A608CF3108800280EDB8D
:10393000C0BCB946B046F8BD01204042EFE7BFF336
:103940005F8F00232B608CF3108801204042434698
:10395000002BEDD00898FFF76FFFC0462C0100D078
:1039600030B5EFF3108C72B60A4C2368002BFCD0F4
:10397000BFF35F8F072301220B409A40CD08435DC0
:1039800093434355BFF35F8F002323608CF310886C
:1039900030BDC0462C0100D0044A1078431CDBB275
:1039A000172B00D9102313707047C046B41A00209B
:1039B00010B5064B064C82B00100009318221F235D
:1039C0002000FFF789FF02B010BDC046E8BF01101C
:1039D000145E00200021044B044ABFF35F8F02C332
:1039E0009342FAD17047C046000100D0800100D058
:1039F000054B064A1360064A136053609360D36018
:103A000013615361936170478080808000E400E01F
:103A100004E400E01F2318401E3B8340002905D02A
:103A2000C021044A49005350136070478022014965
:103A30008B50FAE700E100E001228240034B1B6853
:103A400013405A1E9341D8B27047C04600E100E0CF
:103A500001238340014A13607047C04600E200E042
:103A6000064B10309B688000C358054A00209B1A03
:103A70005F229A424041C0B27047C04600ED00E06C
:103A8000B81A002070B50D00EFF3108672B60F4A19
:103A90001368002BFCD0BFF35F8F0D4B10309B6879
:103AA00084001B590B4A934203D09D4201D001F080
:103AB0001DF9074B9B681D51BFF35F8FBFF35F8FED
:103AC0000022024B1A6086F3108870BD240100D0DA
:103AD00000ED00E0CD010010F0B557464E46DE4641
:103AE0004546E0B585B0060000911700EFF3108B56
:103AF00072B66A4A1368002BFCD0BFF35F8F0025B3
:103B0000674B5D579A46002D00DAA9E06B00654CC3
:103B100001935B199B009846A146C1444B4652460F
:103B20009B7910361370604BB6009B6899590B1B3C
:103B30005F2B33D95D4B994200D0ACE0019B4246EC
:103B40009C465B4B6544AD0063535A4B0232A2184E
:103B5000043B9B1A1B05584A5B0D651913436B8088
:103B6000564B0121AB80FF23AB71009BEF71AB6023
:103B70004B460B4319004C4B9B689951BFF35F8F29
:103B8000BFF35F8F0022454B1A608BF3108805B09E
:103B9000F0BCBB46B246A946A046F0BD01200A00D3
:103BA0008243D3798C46BB4231D845461300444901
:103BB0001B1B5B415943090D3D4B63533D4B023584
:103BC0006519043B5B1B1B053B4D5B0D2B43AA4654
:103BD0004D466B800425AC465546E044131F4444D3
:103BE0001B1B1B055B0D1D434B46997100999D8066
:103BF00099604946DF71334B01431360BBE75800BE
:103C0000C01880002018C179B9422FD902000623BC
:103C1000D356002BF3DA02932B4B61460393131D0B
:103C20009A4604235B429C46E14450464B461B1A8D
:103C30001B055B0D9C46204B95719846634640469C
:103C400003439380019B5A199200039BA418A380FD
:103C5000029B1C4AA371009B2260E771A3608AE764
:103C600001F044F8002553465D574FE790880293D2
:103C70004005131D9A46031561469C464046D444B0
:103C8000634604302018181AE0230005400D1B027B
:103C900018430390C5E701F029F84FE7240100D04D
:103CA00018630020B81A002000ED00E0CD010010DC
:103CB00000A1FFFF181B002000E0FFFF01BDFFFF78
:103CC000AAAA00000148804701BD000070B5012488
:103CD0000443EFF30581EFF3108C72B62D4A13689D
:103CE000002BFCD0BFF35F8F2B4A05002B4BAD1A86
:103CF0006D416B431B0D2A4D8900AE685BB276584F
:103D0000A6422CD00621515699422CD01221515650
:103D1000994234D01E215156994232D02A2151560F
:103D2000994230D03621515699422ED042215156D7
:103D3000994222D04E215156994228D05A215156AB
:103D40000724994210D0174A117813708171BFF37C
:103D50005F8F00220F4B1A608CF3108870BDAA6829
:103D6000114C5450EFE700246100091989005218E2
:103D7000FF2191710D499180E5E70524F4E70124C5
:103D8000F2E70224F0E70324EEE70424ECE706243C
:103D9000EAE7C046240100D0B81A0020AAAA000011
:103DA00000ED00E018630020CD01001001BDFFFF11
:103DB00010B5084B084C82B0010000930022052387
:103DC0002000FFF789FD002801DB1F23181A02B02D
:103DD00010BDC04604C001101C630020024B9C466D
:103DE00061448900016070474000003470B5114C97
:103DF000114DAC420FD2FF262368002B0CD0FFF7E9
:103E0000CBFD01002000FFF7E9FFA680BFF35F8F25
:103E10000834AC42F0D370BDFFF7BEFD01002000B6
:103E2000FFF7DCFF2671BFF35F8F0834AC42E3D3AA
:103E3000F1E7C046282300204823002010B50400E5
:103E4000FFF7AAFD01002000FFF7C8FFFF23237141
:103E5000BFF35F8F10BDC04610B504000120FFF70F
:103E6000A7FD034BC3189B002360BFF35F8F10BDFA
:103E700040000034034B9C46614489000160BFF35D
:103E80005F8F7047400000340A4B1968EFF31080D1
:103E900072B60A68002AFCD0BFF35F8F1B68BFF3BD
:103EA0005F8F00221A6080F3108840BF002000213D
:103EB0007047C046E0620020F0B5DE4657464E46E9
:103EC0004546E0B587B0EFF30583032201251A408C
:103ED000954091008846A946B34B03925C58B34B7A
:103EE0001D60B34B04934B46B24843630823E55E21
:103EF000002D37DAA3881BB2002B00DBADE0A379DD
:103F0000002B00D0EEE00823E05E002820DB430019
:103F100062691B18DB00D3189E68DD68731C00D132
:103F200011E1A44801004144826A0B69B71A9B1A47
:103F30009F4215D30123026A039883401A420FD08F
:103F40009C4800F047FC8D4202DCCCD18642CAD9A5
:103F500040BF07B0F0BCBB46B246A946A046F0BD84
:103F60000E61EDE762696B0092465B19DB009A44D3
:103F700053469E68DF6800F02DFC8F42BADC00D10A
:103F800003E1002F00DAE8E05246534652691B690C
:103F90009346049A934200D1D9E052460821605ECC
:103FA00052880004594610439847009001910099A7
:103FB000019A0B001000134300D1CEE013000A0059
:103FC000B61A9F41002806DB7A4800F003FC009EE9
:103FD000019F36184F4153469E60DF6000229A5E73
:103FE000002A00DA86E7530099186069C900411871
:103FF00002938B68C9689B46B94200DD7AE702D11B
:10400000B34200D976E708239C46A444059565464B
:104010002281A446029B2C0006E053009918C90097
:1040200041188D68C968AB469B18DB00C318B942BC
:1040300006DC00D1B3E01C000023E25E002AECDACB
:10404000230064469C4653461A806346059D1D80A6
:10405000A3881BB2002B00DA51E72269EFF310812D
:1040600072B61368002BFCD0BFF35F8F0123A788C3
:104070005B42A3803FB22369BFF35F8F00221A60C7
:1040800081F31088002F00DA39E72300083322007B
:104090009A4666697B00DB19DB00F3189968504685
:1040A0008C460824115FDD68002910DB029306E0CE
:1040B000AB4244D00023E15E2000002906DB4C0027
:1040C0006418E4003419E368AB42F1DD029B078019
:1040D00000201F5E1980002FDCDA1400A379002B6A
:1040E00000D110E70023A37126000823E15E083603
:1040F0004B1C00D12CE70800A246656902E03E0097
:104100004B1C1AD04B005B18DB00EF180A008C46E2
:10411000E95E7B881BB2002BF1DA01235B42DC17DE
:10412000BB60FC60824205D0534631801B893B80D6
:1041300053461A8160464B1CE4D15446E5E6A36819
:104140006345B7D9C2E76B1C00D0EAE6F8E65B46E8
:1041500058461B69984700281BD153461B88226983
:104160002381EFF3108372B611680029FCD0BFF3EE
:104170005F8F514662880A8022696580BFF35F8F36
:104180000021116083F31088B4E6864200D8F8E677
:10419000B0E65B461A685B680092019307E7B34597
:1041A00000D848E74CE7C046C06200203C7005409C
:1041B000B93E00100040054070B52E4C2569002D19
:1041C00004D00A212C48FFF709FE70BD2B4E0321B5
:1041D000300000F0F5FAE660FFF7DEFB284B032223
:1041E0009C46D02322701B061B6801216370254B5F
:1041F0006044A3600F238000206102206380636914
:104200004942A18019800231198647311D835852D5
:1042100018315A5275325C3999521832013199521B
:104220001832013199521832013199520835183239
:104230009D52023118329952183201319952183276
:104240000131995218320131995218320131995283
:104250001832013199520C4B0C49DC600130356247
:10426000FFF710FC01210320FFF7D4FB084B1D6072
:10427000A7E7C046301B0020E06200200040054058
:1042800040000034FFFF1000C0620020B93E001063
:104290003860054000487047301B0020F8B51F000B
:1042A00008AB1B7804001600002B08D100F09AFA26
:1042B00032003B00121A8B41002B00DA52E02269D7
:1042C000EFF3108072B61368002BFCD0BFF35F8F42
:1042D0000223E15E63694A005218D2009B182269EA
:1042E000002936DB1D886580BFF35F8F00251560D0
:1042F00080F31088069A9E60DF601A61079A5A61FF
:104300005A8801325204520C101C002A1FD082B26B
:104310005880080410432669EFF3108772B632689C
:10432000002AFCD0BFF35F8FA2881A80A180236986
:10433000BFF35F8F00221A6087F310880A49237841
:104340008C4601329A40E36863441A60F8BD01204C
:10435000DDE7BFF35F8F0023136080F31088012037
:104360004042F3E70020F1E73C20000070B5010077
:104370000469EFF3108C72B620680028FCD0BFF3FC
:104380005F8F02200D5E4C6968004019C000241840
:104390000869002D36DB26884E80BFF35F8F00262C
:1043A00006608CF31088E360638804980133206111
:1043B0005B0405985B0CA26060611A1C002B1FD087
:1043C00093B22804628018430A69EFF3108C72B626
:1043D0001368002BFCD0BFF35F8F8B8823808D8008
:1043E0000B69BFF35F8F00221A608CF310880B7883
:1043F00001329A40CB6808498C4663441A6070BD0C
:104400000122DDE7BFF35F8F002303608CF3108888
:1044100001204042F3E7C0463C20000010B543892C
:104420000A1493421ADD53009B184269DB00D3182B
:104430000469EFF3108C72B62268002AFCD0BFF337
:104440005F8F5A88090494B2090C8A4208D0036924
:10445000BFF35F8F00221A608CF31088002010BD1C
:104460008022120214435C80012302698371BFF32E
:104470005F8F002111608CF31088044902788C460C
:104480009340C268012062441360E8E73C200000CA
:1044900040787047F0B5C64600B582B0040000F021
:1044A000A1F9FA2206000F0020000023002192004B
:1044B00002F08EFA8019794104000D1E02DA0124FF
:1044C0002E4D644206267642F71736196F41AF42E9
:1044D00014D811D000F086F932003B00121A8B413B
:1044E000002B15DC002B46D02000290000F084F9B9
:1044F00002B080BCB846F0BDA642EBD9002600272A
:1045000000F070F932003B00121A8B41002BE9DDFC
:1045100000F068F932003B00121A8B41002B0ADBD5
:1045200000230193164B3200009316483B00FFF71F
:104530001DFF0130D8D000233900B0469C46124AF6
:104540001248536A994204D8966A4645CCD2994299
:10455000CAD10668EFF3108772B63368002BFCD01F
:10456000BFF35F8F0368BFF35F8F66461E6087F3FC
:10457000108820BFE5E7002AB6D0C9E7FFFFFF7F1C
:10458000893E0010301B002000400540E062002002
:10459000F0B557464E46DE464546E0B506000F00EC
:1045A00085B0EFF3058399468B46002B12D038492E
:1045B00000204B6ABB4206D38A6ADB1B591E8B4123
:1045C000B2424041184305B0F0BCBB46B246A946D2
:1045D000A046F0BD2F4B9A46DB68984653461B78A1
:1045E0004046039300F0F6F84246039B0400043370
:1045F0009B009B580D001B1A39003000001BA9417D
:10460000894510DC0DD020BF214A0020536A5B454C
:10461000D9D3926ADB1B591E8B41B24240411843E9
:10462000D1E78342EFD900F0DDF832003B00121AE7
:104630008B41002B1ADB00230193174B32000093B0
:1046400050463B00FFF792FE011E0FDD104B5A6AE9
:104650005A451BD39B6AB34216D35046FFF7DEFE82
:104660000B4A0020536A5B45ADD3D2E7084A0020CD
:10467000536A5B45A7D30020926ADB1BB2424041DC
:104680005A1E934118439EE75A45E6D120BFE4E7FE
:1046900000400540301B0020893E0010F0B5CE469A
:1046A0004746110080B583B004009C460C9D194319
:1046B00000D16CE06146DB170193009353401E006C
:1046C000019B4B401F0000980199361A8F416346A9
:1046D0000A996B600B9BAC6029612A606B6100F0EA
:1046E00081F880197941002902DA012031494042DC
:1046F0002269EFF3108972B61368002BFCD0BFF368
:104700005F8F0223E65E636972009219D2009B18E4
:1047100022699046002E42DB1A886280BFF35F8FC9
:10472000002247463A6089F31088234A9860D9608E
:104730001A615A885D6101325204520C111C002A20
:104740002BD088B23204024359802069EFF31087DE
:1047500072B601680029FCD0BFF35F8FA188198071
:10476000A6802369BFF35F8F0021196087F310884B
:10477000124823788446013199400120E36863445C
:104780001960EA6003B0C0BCB946B046F0BD002372
:104790000126002701229C4699E70121D1E7BFF3BA
:1047A0005F8F0023136089F310880122002052429A
:1047B000E7E7C046FFFFFF7FB93E00103C20000046
:1047C00010B5024A0248FFF765F810BD20C001107D
:1047D000185E00200300416A0A00986A596A8A42FA
:1047E000FAD17047034B596A0A00986A596A914294
:1047F000FAD1704700400540064A536A9942FCD8F6
:1048000007D1044B02E05A6A914202D19A6A90425F
:10481000F9D870470040054010B513F0E9FA10BD13
:104820000022835E0A4A944663444B610223C356C6
:10483000013B0B610323C356CB600523C3568B603A
:104840000623C3564B600723C3560B607047C04610
:1048500094F8FFFFF8B5DE464E4657464546E0B5AC
:104860008B4605000A991800160000F059FB0A9BB8
:104870006C001F02324B64199C46A40064446368B8
:1048800081469F4200D967602B1FDBB29846012BFF
:1048900030D9C02380229B01E31812011A60294BF2
:1048A000AD0059599A4600291BD17301E0262268B0
:1048B00053401E40802342465B01E3181E60012ADC
:1048C00030D9802380229B01E31812011A605346DD
:1048D0004A4667605A51F0BCBB46B246A946A0465C
:1048E000F8BD586900F01CFB013043001B18033B66
:1048F000FDD2DAE75B46012BCBD1C02303229B011B
:10490000E3181A60023AA3681A42FCD07301E02649
:104910002268AD0053401E4080230A4A5B01924644
:10492000E3181E605A462168514003220A401A606B
:1049300001225B469A40A3681A42FCD0C1E7C046F8
:1049400000800040205E0020F0B546464F46D64627
:10495000C0B51F00344B44009C462418A400644496
:10496000636888461600FF2B02D880235B006360D3
:10497000031FDBB29A46012B30D9C02380229B0152
:10498000E31812011A60294B8500595999460029EC
:104990001BD17301E026226853401E4080235246FB
:1049A0005B01E3181E60012A30D9802380229B011D
:1049B000E31812011A6080235B0063604B465F516D
:1049C000E0BCBA46B146A846F0BD586900F0A8FA66
:1049D000013043001B18033BFDD2DAE74346012BAD
:1049E000CBD1C02303229B01E3181A60023AA368CB
:1049F0001A42FCD07301E0262268850053401E4015
:104A000080230A4A5B019146E3181E6042462168F2
:104A1000514003220A401A60012342469340A26893
:104A20001342FCD0C1E7C04600800040205E002059
:104A3000014B8000C0587047205E0020F8B504008C
:104A400021481E0017000D0000F06AFA010038002E
:104A500000F066FA069B36041B031E432368002BF6
:104A600020DB1A4B1A49E3185A1E93418022920107
:104A700094465B421B0B174A1B0363441360164AA0
:104A800013601F000A689743FBD1144B2560E2189E
:104A90002123A06013602368002BFCDA0823E66062
:104AA0001360F8BD3F2322681340AB42D9D1A368FD
:104AB0001B051B0D8342D4D1EE22E368D2021340C2
:104AC000B342CED1EDE7C046001BB7000040FDBFAA
:104AD00008C0004000E0004000F00040043000004A
:104AE000024B1A68024B5A607047C0469862002019
:104AF00000800540194B1A4A10B5DA618022194B23
:104B0000D2051A60184C194A146000290AD0E02214
:104B1000174BD2041A60002809D18022144B1206C8
:104B20001A6010BDE022D2041A600028F5D04301BB
:104B30001B1A9B001818802300015B04984209D2BD
:104B400003000C4A13608022044BD2055860084BC6
:104B50001A60E6E7084B1800F3E7C04600800540FE
:104B60002131B76A00B00540FCFF01000820014078
:104B700000A0054098620020FFFFFF0010B58024D0
:104B80001C4BE4051C6000281AD001231A4C184362
:104B90001A4BDC611A4C44401C62596298628021B5
:104BA000144BC9051960174817490860E021C9046A
:104BB0001960002A07D18022144B12061A6010BD1A
:104BC0000E4BD861EBE753019B1A9B009A18802388
:104BD00012015B049A4209D213000D490B60074B86
:104BE0005A608022094BD2051A60E8E7094B1A0087
:104BF000F3E7C04600B00540D3C007B000800540D1
:104C00002D3FF84FFCFF01000820014000A00540A7
:104C100098620020FFFFFF00024B9868431E9841F6
:104C2000C0B27047008005408023024A9B000B43BE
:104C3000D362704700800540002310B50100988AB8
:104C40001B8B984710BDC046162310B5010018886D
:104C500002331B88984710BDF8B54746CE4680B54D
:104C60000F1E18D014239946043304000025012692
:104C700098464B461888434621681B88984701C4CC
:104C8000431E984101350640AF42F2D13000C0BC0E
:104C9000B946B046F8BD0126F8E7C046002370B516
:104CA00004000D00988A05491B8B984703000020DB
:104CB000002C01DB0130A04029009847554200003C
:104CC000AA23064A1B0113608D235B00D3600449AD
:104CD000044B19605368002BFCDA70470040024017
:104CE00000B0FA00006002407047C04610B50148AD
:104CF000FEF7A2FD44C0011070B5074D074EB54246
:104D000009D20024013E761BB60808CD984723003F
:104D10000134B342F9D170BD08B2011044B20110A0
:104D200070B5074D074EB54209D20024013E761BEF
:104D3000B60808CD984723000134B342F9D170BDBD
:104D40003CB2011044B20110054B064A06491A60F4
:104D5000064A074B1A6010000B689843FBD1704756
:104D600000E00040BFCDFBFE08C00040FE7F3C00DD
:104D700000F00040044BDB6C002B03D18022034B7E
:104D8000D2021A607047C046000011504C201150EA
:104D9000044A054B1A60054A1368DB018033FBD1D6
:104DA0007047C046FFFFFF0100F0004008C0004010
:104DB0004022034B9A675A671A67DA667047C04603
:104DC00000F0014010B5FEF705FE10BD70B5044DB2
:104DD000044CA968C022200001F06AFFAC6070BDDD
:104DE00000ED00E000000020002310B5294C82B047
:104DF000A367FFF765FF0122274B1A60636C012B45
:104E0000FCD10322254B1A60224A936B012BFCD163
:104E1000013300930121224A22480433FFF70EFE9A
:104E2000052301210093204A2048FFF707FE0022B6
:104E3000022104201E4BFFF787FD002201210520DF
:104E40001C4BFFF781FD0022002107201A4BFFF7C2
:104E50007BFD002200210820174BFFF775FD802302
:104E6000DB000093002200210920134BFFF7F2FC26
:104E70000022104B00210620FFF766FD0420FFF7FB
:104E8000D7FD0E4900F04CF801000020FFF7CCFEE2
:104E900002B010BD008000403CB0004030B0004087
:104EA000002F685900800240008C864700C00240F5
:104EB000001BB70040597307006CDC0240420F0032
:104EC00001480421014B1847501B0020594C001089
:104ED000124A936F9B0815D29066D166002905D0BF
:104EE000FFE7FFE7FFE7516F106F704704B58021C0
:104EF0000906C2175140002800D0C84316F00CF92B
:104F0000002104BDF0B5146E556E576F166FFFF794
:104F1000E3FF1466556657671667F0BD000000D0C2
:104F2000114A936F9B0813D210665166002905D071
:104F3000FFE7FFE7FFE7516F106F704704B50028E8
:104F400001D00020C04316F0E7F8002104BDC046A0
:104F5000F0B5146E556E576F166FFFF7E5FF1466C8
:104F6000556657671667F0BD000000D094464A4A60
:104F7000926F9208624601D228E0C046F0B5464ED4
:104F8000346E756E776F366F00F020F89446424AA3
:104F900014665566576716676246F0BD94463E4AEA
:104FA000926F9208624601D254E0C046F0B53A4E84
:104FB000346E756E776F366F00F04CF89446364A53
:104FC00014665566576716676246F0BD002B24DBF2
:104FD00011D000293EDA00B5C943404200D1013169
:104FE00000F038F8C943404200D10131DB4352425E
:104FF00000D1013300BD002AEBD1002801D10029E6
:1050000005D00020C90FC90701D1C043410800B530
:1050100016F07AF80022002300BD00B500290ADB53
:10502000DB43524200D1013300F014F8C94340423F
:1050300000D1013100BDC943404200D10131DB4301
:10504000524200D1013300F005F8DB43524200D157
:10505000013300BD002923D1002B18D1002A0CD028
:10506000BC460D4F38667A6600210023FFE7FFE754
:10507000FFE77A6F386F67467047002801D007480E
:10508000010000B516F040F80022002300BD020028
:105090000B00002000217047000000D0FFFFFFFF41
:1050A000002B00D0BFE0130C28D1002AE7D080B439
:1050B000114F39667A66FFE7FFE730B4040C7B6F67
:1050C000396F1B0423433B667A66FFE7FFE7FFE780
:1050D000C04684B27B6F3D6F1B0423433B667A66F8
:1050E000FFE7FFE7C04600232C042D0C7A6F386FD2
:1050F00000196941B0BC7047000000D0F0B594467B
:105100000025140E01D112020835140F01D112012D
:105110000435940F01D192000235D40F01D1520011
:105120000135D40B0134254F7C66254C3C660E0CB2
:1051300093B2FFE7FFE7FFE73C6F6643360C770368
:10514000BE467343DF0B5B04C01AB941130C7343B3
:10515000DB18C91ACE086643360CB64493B27343C3
:105160001F0F1B01C01AB941130C73431F0B1B0502
:10517000C01AB941860D8F023E436643360C092D95
:1051800024DB520A7243801A7703460A6643360CC0
:1051900016235B1BDE40DF40BF1964466643821B5B
:1051A0007046043506330100D940A840C01900D329
:1051B0000131A24206D20023F0BD0000000000D061
:1051C000FFFFFFFF121B0130F3D3F1E709277F1B1D
:1051D000FE406446A2B27243801A00D20139220C0A
:1051E0007243130C1204821A99410B007046043565
:1051F00013370100F940A840801900D30131002B7A
:1052000002D1A2420AD2F0BD013000D30131121BFB
:10521000FAD2013BF8D1A24200D2F0BD013000D356
:105220000131121BF7E7F0B51C0C00D080E00CB484
:1052300000251C0A04D11B02160E33431202083546
:105240001C0B04D11B01160F3343120104359C0BB8
:1052500004D19B00960F334392000235DC0B02D140
:1052600092185B4101351C00971864410134464F88
:105270007C66464C3C660E0CFFE7FFE7FFE7C04646
:105280003C6F6643360C7703BE4697B27743C01B2C
:1052900000D20139C01B00D201399FB27743C91B2C
:1052A000C91B170C77437E04FF0B801BB941CE0846
:1052B0006643360C0C2D33DBB644120B1F053A4304
:1052C0001B0B97B27743C01B00D201399FB27743C3
:1052D000C91B170C77433E043F0C801BB941860D58
:1052E0008F023E43664329277F1BFE400C3D7746D5
:1052F000AF40BF1930BCA2B2ABB272437343801A45
:105300009941220C7243130C1204801A9941020035
:105310000B000137001BA941F9D2781E0021F0BD16
:105320000C277F1BFE4077467F0BAF40FF19E0E75D
:1053300000245D1C07D0144F7D663966FFE7FFE748
:10534000FFE7FFE73C6F95B29EB265436643401BA3
:10535000B141150C1E0C6543664336042F0C3E43C9
:105360002D04401BB141994204D202000B002000E1
:105370000021F0BD01D19042F7D3801A9941013448
:105380009942F2D3F6E70000000000D0FFFFFFFFD4
:1053900048404140484018B41B4B5B68FC460193B1
:1053A00008BD04DFB360001018B4174B1B68FC463F
:1053B000019308BD00DFBD6000109446134A926F50
:1053C000920809D2624618B40F4BDB68FC46019381
:1053D00008BD0CDF756300100C4AF0B5146E556EF5
:1053E000576F166F6246FFF7EEFF084A1466556660
:1053F00057671667F0BD18B4034B9B68FC460193D2
:1054000008BD08DF1962001088520020000000D09B
:10541000FFB550404240504059404B40594000E099
:10542000FFB5154F4C00640D03D0BC4204D10C03F2
:1054300014D80020090D09055C00640D03D0BC429E
:1054400004D11C030AD800221B0D1B0501264B406A
:1054500009D44B4003D58B4200D18242FFBD994213
:10546000FCD19042FFBD0B43DB1803431343F5D03F
:10547000C9434918FFBD0000FF07000000B5FFF752
:10548000CFFF01D0002000BD012000BD00B5FFF717
:10549000C7FF804100BDC04600B5FFF7C1FF01D97D
:1054A000002000BD012000BD00B5FFF7B1FF01D90C
:1054B000002000BD012000BD00B5FFF7A9FF80411D
:1054C00000BD012040054A00121804D85A001218E5
:1054D00001D80020704701207047000000210028FB
:1054E00005D17047C1174840401AFAD0C90713B513
:1054F000064B1B6898470CBC441CA2401005120BBD
:105500000349091B09051943114310BDDC62002042
:105510001F04000010B54C00620D8023D218DB0080
:10552000D21A5B057E2A10DD9E3A13DACC170903E6
:10553000490819435242D140640001341532202AEF
:1055400005DAD0400843604310BD002010BD084676
:10555000604310BDC80FC018013810BD18B4044B0B
:105560005B6AFC46019308BD24DF2565001000003E
:105570008852002018B4044B5B6EFC46019308BDB2
:1055800064DF29660010000088520020C94211D350
:1055900000B549004908002200F018F8002904D499
:1055A000002240428A41114600BD802109060020A8
:1055B00000BD000018B4044BDB6EFC46019308BD2F
:1055C0006CDF3365001000008852002018B4044BD3
:1055D0009B6FFC46019308BD78DF4F65001000000B
:1055E0008852002018B4044BDB6FFC46019308BDC1
:1055F0007CDFBD65001000008852002018B4044B09
:10560000DB6CFC46019308BD4CDF696700100000AD
:105610008852002018B4044B1B6DFC46019308BD52
:1056200050DF05680010000088520020132370B579
:105630001D78012D19D014DD1F48FFF705FB06006A
:105640001E48FFF701FB1E4C80223100200001F0B4
:105650002FFB022D2DD01B48FFF7EEFA1A4B1860D6
:1056600070BD1A4B164CA364F5E7184B144C23601D
:105670006360A360E36023616361A361E36123620C
:105680006362A362E36223636363A363E3632364EC
:105690006364A364E36423656365A365E3652366CC
:1056A0006366A366E36623676367A367E367A36430
:1056B000D1E7064BA364CEE75344000053460000F5
:1056C000885200204C330000DC6200208160001012
:1056D000F0B54646D6464F461D00984BC0B5984695
:1056E0004E00760D140088B0B044002E52D0944B7A
:1056F0009E424FD00022934FBF1B3B05801859415B
:10570000FFF788FF904A914BFFF757FE0022904B1E
:1057100000900191FFF7D0FE00280AD0009801996F
:105720008C4B0022FFF737FE8B4B0090019198467F
:10573000B0444346002B22D0002220002900874B92
:10574000FFF7B2FE00280DD1002220002900844B73
:10575000FFF7A2FE00283FD043460024002B05DBC4
:10576000002504E043460024002BF9DB7D4D20009A
:10577000290008B0E0BCBA46B146A846F0BD2200F8
:10578000009801992B00FFF736FE00F087FA04001D
:105790000D00ECE7FFF73EFF6B4A6C4BFFF70DFE89
:1057A00000226B4B00900191FFF786FE0028C3D0CA
:1057B000009801990022674BFFF7EDFD664B0090C2
:1057C00001919846002220002900644BB044FFF765
:1057D0006BFE0028B8D0C5E72000290000F010FAC1
:1057E0000B00020006000F0020002900FFF7D3FD88
:1057F0001A220490059100F0DDF900F001FA03008F
:105800000C00029303944B005B0D0DD04C4A934265
:105810000AD000221A2B00DC87E002980399524B31
:1058200012184B410292039339003000FFF772FEC9
:1058300082464046FFF756FE029A039B06000F0081
:10584000FFF7D9FD04000D0000F0DAF902000B00AB
:105850000690079120002900FFF79DFD029A039B07
:1058600004000D0004980599FFF795FD32003B00F8
:10587000FFF7C1FD22002B00FFF796FD0600504602
:105880000F00FFF72FFE009A019BFFF7B4FD040005
:105890000D0000F0B5F90A00010013000291039217
:1058A000020029002000FFF776FD32003B00FFF7E1
:1058B0007BFD009A019B04000D0004980599FFF7F9
:1058C0009AFD2B002200FFF76FFD00F0E7F94B0077
:1058D0005B0D04000D0006000F009946002B00D15F
:1058E00045E7174B994500D141E70698079952467D
:1058F000434653439A46FFF70DFE824402980399AC
:10590000FFF708FE4B465044C318002B09DD174A29
:1059100093420DDDEB0F134ADB071A4300241500F9
:1059200025E7EB0F0024DD0721E7C90FCB0779E757
:1059300000240505A4197D4119E7C04601FCFFFFBD
:10594000FF070000FF030000EF39FAFE422EE63F9A
:105950000000E03F0000F03F02FCFFFF0000B0400D
:105960000000B0C00000F07F000060FEFE070000F5
:10597000F0B54646D6464F460400C0B50D001600A9
:10598000012A56D0D70FBF187F10012F47D003230D
:10599000D21713409B199B109846012B35D0072333
:1059A00013409B19DB109946012B27D00F2313407E
:1059B0009B191B119A46012B15D03300203B1F2B3E
:1059C00006D90022FFF7D4FF02000B00FFF713FDFA
:1059D0000B000200FFF70FFD5346DB0703D5220043
:1059E0002B00FFF708FD0B000200FFF704FD4B46FC
:1059F000DB0703D522002B00FFF7FDFC0B000200A4
:105A0000FFF7F9FC4346DB0718D402000B00FFF751
:105A1000F2FCFF0703D522002B00FFF7ECFC02008D
:105A20000B00FFF7E8FCF60703D522002B00FFF779
:105A3000E2FCE0BCBA46B146A846F0BD22002B000D
:105A4000FFF7D9FCE1E7C046F0B587B004000D00D0
:105A5000029003910492059300292CDA5B004E4AD0
:105A60005B0D9B181ED43422D31A1BD41800203887
:105A70004AD4353A84468240049E059F012149421A
:105A800099403000884301003800904302000A43E7
:105A900008D1342B4CD06246002A3FDB3B00D34078
:105AA000DB0745D480231B06EB1800940193009C70
:105AB000019D0294039504980599FFF72BFD2B0D8A
:105AC00006000200002B3ED034498B423BD0290314
:105AD000090B214337D1324A904256DB8022120112
